{
  "_format": "hh-sol-artifact-1",
  "contractName": "AccessControl",
  "sourceName": "contracts/AccessControl.sol",
  "abi": [
    {
      "anonymous": false,
      "inputs": [
        {
          "indexed": false,
          "internalType": "uint8",
          "name": "version",
          "type": "uint8"
        }
      ],
      "name": "Initialized",
      "type": "event"
    },
    {
      "anonymous": false,
      "inputs": [
        {
          "indexed": true,
          "internalType": "bytes32",
          "name": "role",
          "type": "bytes32"
        },
        {
          "indexed": true,
          "internalType": "bytes32",
          "name": "previousAdminRole",
          "type": "bytes32"
        },
        {
          "indexed": true,
          "internalType": "bytes32",
          "name": "newAdminRole",
          "type": "bytes32"
        }
      ],
      "name": "RoleAdminChanged",
      "type": "event"
    },
    {
      "anonymous": false,
      "inputs": [
        {
          "indexed": true,
          "internalType": "bytes32",
          "name": "role",
          "type": "bytes32"
        },
        {
          "indexed": true,
          "internalType": "address",
          "name": "account",
          "type": "address"
        },
        {
          "indexed": true,
          "internalType": "address",
          "name": "sender",
          "type": "address"
        }
      ],
      "name": "RoleGranted",
      "type": "event"
    },
    {
      "anonymous": false,
      "inputs": [
        {
          "indexed": true,
          "internalType": "bytes32",
          "name": "role",
          "type": "bytes32"
        },
        {
          "indexed": true,
          "internalType": "address",
          "name": "account",
          "type": "address"
        },
        {
          "indexed": true,
          "internalType": "address",
          "name": "sender",
          "type": "address"
        }
      ],
      "name": "RoleRevoked",
      "type": "event"
    },
    {
      "inputs": [],
      "name": "ADMIN_ROLE",
      "outputs": [
        {
          "internalType": "bytes32",
          "name": "",
          "type": "bytes32"
        }
      ],
      "stateMutability": "view",
      "type": "function"
    },
    {
      "inputs": [],
      "name": "BILLING_ROLE",
      "outputs": [
        {
          "internalType": "bytes32",
          "name": "",
          "type": "bytes32"
        }
      ],
      "stateMutability": "view",
      "type": "function"
    },
    {
      "inputs": [],
      "name": "BURNER_ROLE",
      "outputs": [
        {
          "internalType": "bytes32",
          "name": "",
          "type": "bytes32"
        }
      ],
      "stateMutability": "view",
      "type": "function"
    },
    {
      "inputs": [],
      "name": "DEFAULT_ADMIN_ROLE",
      "outputs": [
        {
          "internalType": "bytes32",
          "name": "",
          "type": "bytes32"
        }
      ],
      "stateMutability": "view",
      "type": "function"
    },
    {
      "inputs": [],
      "name": "MINTER_ROLE",
      "outputs": [
        {
          "internalType": "bytes32",
          "name": "",
          "type": "bytes32"
        }
      ],
      "stateMutability": "view",
      "type": "function"
    },
    {
      "inputs": [],
      "name": "REFUNDER_ROLE",
      "outputs": [
        {
          "internalType": "bytes32",
          "name": "",
          "type": "bytes32"
        }
      ],
      "stateMutability": "view",
      "type": "function"
    },
    {
      "inputs": [
        {
          "internalType": "bytes32",
          "name": "role",
          "type": "bytes32"
        }
      ],
      "name": "getRoleAdmin",
      "outputs": [
        {
          "internalType": "bytes32",
          "name": "",
          "type": "bytes32"
        }
      ],
      "stateMutability": "view",
      "type": "function"
    },
    {
      "inputs": [
        {
          "internalType": "bytes32",
          "name": "role",
          "type": "bytes32"
        },
        {
          "internalType": "address",
          "name": "account",
          "type": "address"
        }
      ],
      "name": "grantRole",
      "outputs": [],
      "stateMutability": "nonpayable",
      "type": "function"
    },
    {
      "inputs": [
        {
          "internalType": "bytes32",
          "name": "role",
          "type": "bytes32"
        },
        {
          "internalType": "address",
          "name": "account",
          "type": "address"
        }
      ],
      "name": "hasRole",
      "outputs": [
        {
          "internalType": "bool",
          "name": "",
          "type": "bool"
        }
      ],
      "stateMutability": "view",
      "type": "function"
    },
    {
      "inputs": [],
      "name": "initialize",
      "outputs": [],
      "stateMutability": "nonpayable",
      "type": "function"
    },
    {
      "inputs": [
        {
          "internalType": "bytes32",
          "name": "role",
          "type": "bytes32"
        },
        {
          "internalType": "address",
          "name": "account",
          "type": "address"
        }
      ],
      "name": "renounceRole",
      "outputs": [],
      "stateMutability": "nonpayable",
      "type": "function"
    },
    {
      "inputs": [
        {
          "internalType": "bytes32",
          "name": "role",
          "type": "bytes32"
        },
        {
          "internalType": "address",
          "name": "account",
          "type": "address"
        }
      ],
      "name": "revokeRole",
      "outputs": [],
      "stateMutability": "nonpayable",
      "type": "function"
    },
    {
      "inputs": [
        {
          "internalType": "bytes4",
          "name": "interfaceId",
          "type": "bytes4"
        }
      ],
      "name": "supportsInterface",
      "outputs": [
        {
          "internalType": "bool",
          "name": "",
          "type": "bool"
        }
      ],
      "stateMutability": "view",
      "type": "function"
    }
  ],
  "bytecode": "0x608060405234801561001057600080fd5b50610b00806100206000396000f3fe608060405234801561001057600080fd5b50600436106100cf5760003560e01c806375b238fc1161008c5780639a03d926116100665780639a03d926146101d3578063a217fddf146101fa578063d539139314610202578063d547741f1461022957600080fd5b806375b238fc146101a35780638129fc1c146101b857806391d14854146101c057600080fd5b806301ffc9a7146100d4578063248a9ca3146100fc578063282c51f31461012d5780632f2ff15d1461015457806336568abe146101695780635960ccf21461017c575b600080fd5b6100e76100e23660046108dc565b61023c565b60405190151581526020015b60405180910390f35b61011f61010a366004610906565b60009081526065602052604090206001015490565b6040519081526020016100f3565b61011f7f3c11d16cbaffd01df69ce1c404f6340ee057498f5f00246190ea54220576a84881565b61016761016236600461091f565b610273565b005b61016761017736600461091f565b61029d565b61011f7fdb9556138406326f00296e13ea2ad7db24ba82381212d816b1a40c23b466b32781565b61011f600080516020610aab83398151915281565b610167610320565b6100e76101ce36600461091f565b610539565b61011f7fc7dbcbd02b2453841b03d711b3fa5627fb034dc836d830d876e0d18e13025eb781565b61011f600081565b61011f7f9f2df0fed2c77648de5860a4cc508cd0818c85b8b8a1ab4ceeef8d981c8956a681565b61016761023736600461091f565b610564565b60006001600160e01b03198216637965db0b60e01b148061026d57506301ffc9a760e01b6001600160e01b03198316145b92915050565b60008281526065602052604090206001015461028e81610589565b6102988383610593565b505050565b6001600160a01b03811633146103125760405162461bcd60e51b815260206004820152602f60248201527f416363657373436f6e74726f6c3a2063616e206f6e6c792072656e6f756e636560448201526e103937b632b9903337b91039b2b63360891b60648201526084015b60405180910390fd5b61031c8282610619565b5050565b600054610100900460ff16158080156103405750600054600160ff909116105b8061035a5750303b15801561035a575060005460ff166001145b6103bd5760405162461bcd60e51b815260206004820152602e60248201527f496e697469616c697a61626c653a20636f6e747261637420697320616c72656160448201526d191e481a5b9a5d1a585b1a5e995960921b6064820152608401610309565b6000805460ff1916600117905580156103e0576000805461ff0019166101001790555b6103f8600080516020610aab83398151915233610680565b610410600080516020610aab8339815191528061068a565b6104487f9f2df0fed2c77648de5860a4cc508cd0818c85b8b8a1ab4ceeef8d981c8956a6600080516020610aab83398151915261068a565b6104807f3c11d16cbaffd01df69ce1c404f6340ee057498f5f00246190ea54220576a848600080516020610aab83398151915261068a565b6104b87fc7dbcbd02b2453841b03d711b3fa5627fb034dc836d830d876e0d18e13025eb7600080516020610aab83398151915261068a565b6104f07fdb9556138406326f00296e13ea2ad7db24ba82381212d816b1a40c23b466b327600080516020610aab83398151915261068a565b8015610536576000805461ff0019169055604051600181527f7f26b83ff96e1f2b6a682f133852f6798a09c465da95921460cefb38474024989060200160405180910390a15b50565b60009182526065602090815260408084206001600160a01b0393909316845291905290205460ff1690565b60008281526065602052604090206001015461057f81610589565b6102988383610619565b61053681336106d5565b61059d8282610539565b61031c5760008281526065602090815260408083206001600160a01b03851684529091529020805460ff191660011790556105d53390565b6001600160a01b0316816001600160a01b0316837f2f8788117e7eff1d82e926ec794901d17c78024a50270940304540a733656f0d60405160405180910390a45050565b6106238282610539565b1561031c5760008281526065602090815260408083206001600160a01b0385168085529252808320805460ff1916905551339285917ff6391f5c32d9c69d2a47ea670b442974b53935d1edc7fd64eb21e047a839171b9190a45050565b61031c8282610593565b600082815260656020526040808220600101805490849055905190918391839186917fbd79b86ffe0ab8e8776151514217cd7cacd52c909f66475c3af44e129f0b00ff9190a4505050565b6106df8282610539565b61031c576106f7816001600160a01b03166014610739565b610702836020610739565b60405160200161071392919061097f565b60408051601f198184030181529082905262461bcd60e51b8252610309916004016109f4565b60606000610748836002610a3d565b610753906002610a54565b67ffffffffffffffff81111561076b5761076b610a67565b6040519080825280601f01601f191660200182016040528015610795576020820181803683370190505b509050600360fc1b816000815181106107b0576107b0610a7d565b60200101906001600160f81b031916908160001a905350600f60fb1b816001815181106107df576107df610a7d565b60200101906001600160f81b031916908160001a9053506000610803846002610a3d565b61080e906001610a54565b90505b6001811115610886576f181899199a1a9b1b9c1cb0b131b232b360811b85600f166010811061084257610842610a7d565b1a60f81b82828151811061085857610858610a7d565b60200101906001600160f81b031916908160001a90535060049490941c9361087f81610a93565b9050610811565b5083156108d55760405162461bcd60e51b815260206004820181905260248201527f537472696e67733a20686578206c656e67746820696e73756666696369656e746044820152606401610309565b9392505050565b6000602082840312156108ee57600080fd5b81356001600160e01b0319811681146108d557600080fd5b60006020828403121561091857600080fd5b5035919050565b6000806040838503121561093257600080fd5b8235915060208301356001600160a01b038116811461095057600080fd5b809150509250929050565b60005b8381101561097657818101518382015260200161095e565b50506000910152565b7f416363657373436f6e74726f6c3a206163636f756e74200000000000000000008152600083516109b781601785016020880161095b565b7001034b99036b4b9b9b4b733903937b6329607d1b60179184019182015283516109e881602884016020880161095b565b01602801949350505050565b6020815260008251806020840152610a1381604085016020870161095b565b601f01601f19169190910160400192915050565b634e487b7160e01b600052601160045260246000fd5b808202811582820484141761026d5761026d610a27565b8082018082111561026d5761026d610a27565b634e487b7160e01b600052604160045260246000fd5b634e487b7160e01b600052603260045260246000fd5b600081610aa257610aa2610a27565b50600019019056fea49807205ce4d355092ef5a8a18f56e8913cf4a201fbe287825b095693c21775a2646970667358221220976968ce0542d5229b7d523c57160a507e1b5144b6f75f2cde08a1ef909a8cb264736f6c63430008110033",
  "linkReferences": {},
  "deployedLinkReferences": {}
}