{
  "_format": "hh-sol-artifact-1",
  "contractName": "Billing",
  "sourceName": "contracts/Billing.sol",
  "abi": [
    {
      "anonymous": false,
      "inputs": [
        {
          "indexed": false,
          "internalType": "string",
          "name": "symbol",
          "type": "string"
        },
        {
          "indexed": false,
          "internalType": "address",
          "name": "token",
          "type": "address"
        }
      ],
      "name": "CurrencyChanged",
      "type": "event"
    },
    {
      "anonymous": false,
      "inputs": [
        {
          "indexed": false,
          "internalType": "uint8",
          "name": "version",
          "type": "uint8"
        }
      ],
      "name": "Initialized",
      "type": "event"
    },
    {
      "anonymous": false,
      "inputs": [
        {
          "indexed": false,
          "internalType": "enum Billing.SubscriptionPeriod",
          "name": "period",
          "type": "uint8"
        },
        {
          "indexed": false,
          "internalType": "uint256",
          "name": "rate",
          "type": "uint256"
        }
      ],
      "name": "PriceRateChanged",
      "type": "event"
    },
    {
      "anonymous": false,
      "inputs": [
        {
          "indexed": false,
          "internalType": "uint16",
          "name": "countryISO",
          "type": "uint16"
        },
        {
          "indexed": false,
          "internalType": "uint256",
          "name": "rate",
          "type": "uint256"
        }
      ],
      "name": "VatRateChanged",
      "type": "event"
    },
    {
      "inputs": [
        {
          "internalType": "string",
          "name": "",
          "type": "string"
        }
      ],
      "name": "currencies",
      "outputs": [
        {
          "internalType": "address",
          "name": "",
          "type": "address"
        }
      ],
      "stateMutability": "view",
      "type": "function"
    },
    {
      "inputs": [
        {
          "internalType": "uint16",
          "name": "",
          "type": "uint16"
        }
      ],
      "name": "deniedCountry",
      "outputs": [
        {
          "internalType": "bool",
          "name": "",
          "type": "bool"
        }
      ],
      "stateMutability": "view",
      "type": "function"
    },
    {
      "inputs": [
        {
          "internalType": "address",
          "name": "_accessControl",
          "type": "address"
        },
        {
          "internalType": "address",
          "name": "_usdtToken",
          "type": "address"
        },
        {
          "internalType": "address",
          "name": "_usdcToken",
          "type": "address"
        }
      ],
      "name": "initialize",
      "outputs": [],
      "stateMutability": "nonpayable",
      "type": "function"
    },
    {
      "inputs": [
        {
          "internalType": "uint16",
          "name": "_country",
          "type": "uint16"
        }
      ],
      "name": "isDeniedCountry",
      "outputs": [
        {
          "internalType": "bool",
          "name": "",
          "type": "bool"
        }
      ],
      "stateMutability": "view",
      "type": "function"
    },
    {
      "inputs": [
        {
          "internalType": "string",
          "name": "_currencySymbol",
          "type": "string"
        }
      ],
      "name": "isSupportedCurrency",
      "outputs": [
        {
          "internalType": "bool",
          "name": "",
          "type": "bool"
        }
      ],
      "stateMutability": "view",
      "type": "function"
    },
    {
      "inputs": [
        {
          "internalType": "uint16",
          "name": "_countryCode",
          "type": "uint16"
        }
      ],
      "name": "isValidCountryCode",
      "outputs": [
        {
          "internalType": "bool",
          "name": "",
          "type": "bool"
        }
      ],
      "stateMutability": "pure",
      "type": "function"
    },
    {
      "inputs": [
        {
          "internalType": "uint8",
          "name": "",
          "type": "uint8"
        }
      ],
      "name": "priceRates",
      "outputs": [
        {
          "internalType": "uint256",
          "name": "",
          "type": "uint256"
        }
      ],
      "stateMutability": "view",
      "type": "function"
    },
    {
      "inputs": [
        {
          "internalType": "string",
          "name": "_currencySymbol",
          "type": "string"
        },
        {
          "internalType": "address",
          "name": "_token",
          "type": "address"
        }
      ],
      "name": "setCurrency",
      "outputs": [],
      "stateMutability": "nonpayable",
      "type": "function"
    },
    {
      "inputs": [
        {
          "internalType": "uint16",
          "name": "_country",
          "type": "uint16"
        },
        {
          "internalType": "bool",
          "name": "deny",
          "type": "bool"
        }
      ],
      "name": "setDeniedCountry",
      "outputs": [],
      "stateMutability": "nonpayable",
      "type": "function"
    },
    {
      "inputs": [
        {
          "internalType": "enum Billing.SubscriptionPeriod",
          "name": "_period",
          "type": "uint8"
        },
        {
          "internalType": "uint256",
          "name": "_rate",
          "type": "uint256"
        }
      ],
      "name": "setPriceRate",
      "outputs": [],
      "stateMutability": "nonpayable",
      "type": "function"
    },
    {
      "inputs": [
        {
          "internalType": "uint16",
          "name": "_countryIso",
          "type": "uint16"
        },
        {
          "internalType": "uint256",
          "name": "_rate",
          "type": "uint256"
        }
      ],
      "name": "setVatRate",
      "outputs": [],
      "stateMutability": "nonpayable",
      "type": "function"
    },
    {
      "inputs": [
        {
          "internalType": "uint256",
          "name": "_usdAmount",
          "type": "uint256"
        },
        {
          "internalType": "uint16",
          "name": "_countryOfResidence",
          "type": "uint16"
        }
      ],
      "name": "taxAmount",
      "outputs": [
        {
          "internalType": "uint256",
          "name": "",
          "type": "uint256"
        }
      ],
      "stateMutability": "view",
      "type": "function"
    },
    {
      "inputs": [
        {
          "internalType": "enum Billing.SubscriptionPeriod",
          "name": "_period",
          "type": "uint8"
        },
        {
          "internalType": "uint256",
          "name": "nbPeriods",
          "type": "uint256"
        }
      ],
      "name": "usdPriceExcludingTax",
      "outputs": [
        {
          "internalType": "uint256",
          "name": "",
          "type": "uint256"
        }
      ],
      "stateMutability": "view",
      "type": "function"
    },
    {
      "inputs": [
        {
          "internalType": "uint256",
          "name": "_amount",
          "type": "uint256"
        },
        {
          "internalType": "string",
          "name": "_symbol",
          "type": "string"
        }
      ],
      "name": "usdToCurrency",
      "outputs": [
        {
          "internalType": "uint256",
          "name": "",
          "type": "uint256"
        }
      ],
      "stateMutability": "view",
      "type": "function"
    },
    {
      "inputs": [
        {
          "internalType": "uint16",
          "name": "",
          "type": "uint16"
        }
      ],
      "name": "vatRates",
      "outputs": [
        {
          "internalType": "uint256",
          "name": "",
          "type": "uint256"
        }
      ],
      "stateMutability": "view",
      "type": "function"
    }
  ],
  "bytecode": "0x608060405234801561001057600080fd5b506118f6806100206000396000f3fe608060405234801561001057600080fd5b50600436106100f55760003560e01c806393477fa811610097578063c725a28911610066578063c725a28914610221578063c8f5bc0614610241578063d669602f1461028d578063d6be7836146102a057600080fd5b806393477fa8146101c857806396550e16146101e8578063a718f11a146101fb578063c0c53b8b1461020e57600080fd5b806355f14d25116100d357806355f14d25146101485780636d38fb6d1461017f5780636e8e2d2b146101a2578063770527dd146101b557600080fd5b80631008a51d146100fa5780632506a82a14610120578063280575e114610135575b600080fd5b61010d610108366004611360565b6102b3565b6040519081526020015b60405180910390f35b61013361012e36600461138c565b6102e7565b005b61010d61014336600461138c565b61045d565b61016f6101563660046113bc565b61ffff1660009081526067602052604090205460ff1690565b6040519015158152602001610117565b61016f61018d3660046113bc565b60676020526000908152604090205460ff1681565b6101336101b0366004611491565b6104e1565b61016f6101c33660046113bc565b610652565b61010d6101d63660046114e8565b60686020526000908152604090205481565b6101336101f6366004611505565b6106a8565b61010d610209366004611521565b610854565b61013361021c366004611568565b610962565b61010d61022f3660046113bc565b60666020526000908152604090205481565b61027561024f3660046115ab565b80516020818301810180516065825292820191909301209152546001600160a01b031681565b6040516001600160a01b039091168152602001610117565b61013361029b3660046115ee565b611158565b61016f6102ae3660046115ab565b61127f565b61ffff811660009081526066602052604081205460646102d3828661163b565b6102dd9190611652565b9150505b92915050565b60335460408051634d01ec9360e11b815290516001600160a01b03909216916391d14854918391639a03d926916004808201926020929091908290030181865afa158015610339573d6000803e3d6000fd5b505050506040513d601f19601f8201168201806040525081019061035d9190611674565b336040516001600160e01b031960e085901b16815260048101929092526001600160a01b03166024820152604401602060405180830381865afa1580156103a8573d6000803e3d6000fd5b505050506040513d601f19601f820116820180604052508101906103cc919061168d565b6103f15760405162461bcd60e51b81526004016103e8906116aa565b60405180910390fd5b8060686000846002811115610408576104086116d1565b60ff1660ff168152602001908152602001600020819055507fa50e3fabdc94d9f4197d5f3e194607eb7c6d07eeb5c4694d5dad86eca237708282826040516104519291906116e7565b60405180910390a15050565b60008082116104a65760405162461bcd60e51b815260206004820152601560248201527406e62506572696f64732063616e6e6f74206265203605c1b60448201526064016103e8565b606860008460028111156104bc576104bc6116d1565b60ff1681526020810191909152604001600020546104da908361163b565b9392505050565b60335460408051634d01ec9360e11b815290516001600160a01b03909216916391d14854918391639a03d926916004808201926020929091908290030181865afa158015610533573d6000803e3d6000fd5b505050506040513d601f19601f820116820180604052508101906105579190611674565b336040516001600160e01b031960e085901b16815260048101929092526001600160a01b03166024820152604401602060405180830381865afa1580156105a2573d6000803e3d6000fd5b505050506040513d601f19601f820116820180604052508101906105c6919061168d565b6105e25760405162461bcd60e51b81526004016103e8906116aa565b806065836040516105f39190611737565b90815260405190819003602001812080546001600160a01b03939093166001600160a01b0319909316929092179091557f902df145f0ebd09d8b75197500df1e2d7e3ca50154bd25ef8b18ac8ed1cc135b906104519084908490611753565b600060048261ffff1611801561066d57506103cf8261ffff16105b1561067a57506001919050565b8161ffff1661183a148061069357508161ffff1661183b145b156106a057506001919050565b506000919050565b60335460408051634d01ec9360e11b815290516001600160a01b03909216916391d14854918391639a03d926916004808201926020929091908290030181865afa1580156106fa573d6000803e3d6000fd5b505050506040513d601f19601f8201168201806040525081019061071e9190611674565b336040516001600160e01b031960e085901b16815260048101929092526001600160a01b03166024820152604401602060405180830381865afa158015610769573d6000803e3d6000fd5b505050506040513d601f19601f8201168201806040525081019061078d919061168d565b6107a95760405162461bcd60e51b81526004016103e8906116aa565b6107b282610652565b6108085760405162461bcd60e51b815260206004820152602160248201527f42696c6c696e673a20756e737570706f7274656420636f756e74727920636f646044820152606560f81b60648201526084016103e8565b61ffff8216600081815260666020908152604091829020849055815192835282018390527f98e85ce84650041cb1b37849ef303d5e3261c58bd1add53cc2c7d67eb0a1ab339101610451565b600061085f8261127f565b6108ab5760405162461bcd60e51b815260206004820152601d60248201527f42696c6c696e673a20756e737570706f727465642063757272656e637900000060448201526064016103e8565b60006065836040516108bd9190611737565b9081526040805191829003602090810183205463313ce56760e01b845291516001600160a01b0390921693508392600292849263313ce56792600480820193918290030181865afa158015610916573d6000803e3d6000fd5b505050506040513d601f19601f8201168201806040525081019061093a9190611797565b61094491906117b4565b61094f90600a6118b1565b610959908661163b565b95945050505050565b600054610100900460ff16158080156109825750600054600160ff909116105b8061099c5750303b15801561099c575060005460ff166001145b6109ff5760405162461bcd60e51b815260206004820152602e60248201527f496e697469616c697a61626c653a20636f6e747261637420697320616c72656160448201526d191e481a5b9a5d1a585b1a5e995960921b60648201526084016103e8565b6000805460ff191660011790558015610a22576000805461ff0019166101001790555b610a2b846112bc565b826065604051610a4590631554d11560e21b815260040190565b908152604080516020928190038301812080546001600160a01b03199081166001600160a01b0396871617909155635553444360e01b825260656004830152915160249181900391909101902080549091169285169290921790915560147fb56851a2a8bda4468047fc7859d6560cd2d2155bb2014bbe5613e65a1b59689f81905560157f89bf6caa3863a2b57c60cd32681046b2aa06438d7cdc82318df595f3e0dc4ef38190557fc71826675e19241c5f3b18d095e7633f058d990f9563fb2cf3ece77dd958f1c582905560137ff4b9bf36c2641369768e39abe5aa38af7064bbf469f9d153d89ac4e2f2722a598190557f31792c24a15f4bb2fec3c616e820d6d540048806d1515b0aa2df363ac2a3e5a182905560197fe5d862d421b299fdc1c7aa06d46d550971f7894ace69a1641dfeba561e2af8e48190557fa7012e48b9ee89d4e83770d48870ed547f724f3e2de2aa84814baa40a6a0485a8290557fbdf5f9713d898252cba165d2ea47c8ca557196374f1a7107d5474b1143fe0b3a84905560187fbc758fb8a653cd48f40a4933e382f1df559d32c70693c769bd529260d09fc4408190557f0a2dfd7e06b9ac274da2c1002a862082590b0995017b4d9eb783cccb43f641678490557f02ebd04ea7ef04f11b7a93463361d1ee191ea2f08babc0efb1d17a4236fe8759557f603bffc25663aa9ac3385ec6346201bd4707687c57ad2d9677373626847b6b6e8490557f41cbd89b236299563b0071f0042085b0b664188b3d29a843c68adef0175e068481905560167f891f4bbe67f799020c8b127389d73510d0e601847b713ed61ea9e644448370a28190557fa5b30983b18a6c8946727c2b324645ac78320551a1242c965aa082eae147e8088490557fcd27db1a5f94bc06e8dc40dc7723887f2e21904b509fea680f244f989701010d84905560107fa9a9e96a533ddad7f8d96a8f880d7aac4d227ae415eaef47f87c1dc3128cd4ee819055601b7f6c769529f8beecd0036a94fbc1c67210f39879f83f1e7f4e70884175301d6b335560177fee13ab2e38348418f47411b49464975c2d3e27021570c00139aedc3642b1e91881905560127f8389c006094e5650d66be770735d0244dcd91ffd54a5eb37d4b6a962dea9fecc557f213424dbb04ae14ed4f0376a8c721fd6273ad8c70b4b3a054955b32292924a13959095557fbe9a234da689abb7d20427ebd0aadc7873cf5e0cbc1a7132296902d00c5e670c8590557f61451cbf245829c59f89cfa50fed2a35098940150b8567775c15cc57bf8d5cb8949094557f64213888af8c8e392b4e11562ea47a3bdf55183ce7d95ee996bd2bf22d30ea15939093557f960a678487537878e6ebdb987d854f98675aefbbfcd107e3e0ee1d18c06c19a58390557f6923a19224cbc687d6af78f6b3add13cdf3f0f97343324b213d23c46531d63da919091557f8aa3731ba2188c9a46df3088e077ac5aa0025b447ec1e3a942618cbbe966b1ec919091557ffc78ddb3a55b1d00381691a073193291b335d763688a3b52b704f80cb1a19acb919091557f095b1b0eb0e3b39d57765047410bdb8db5a0b2c008ac4ca385dfcf7ea6f41002557f3bf71d3d3125f472e84c0e14d0b192c3658fe92f6bab56c5b6caf0f12077602c805460ff1990811660019081179092557fb507666a571fd3fbd9a1740f80206640d53cbfcdb8cc8d2cf59ab88c2512af1080548216831790557fda5bec67218a3452657dd3dfc92c5103ffc53698ce470bd53e545b032465c47180548216831790557f5cfe5c7baaa8de77e6a34cfb76a5d104f72dabeb8b12220f3a51576d113d5d5b80548216831790557fd6cb9668c6c97b1918c5240c7e6fb0441436a1eb910af2228e61c31dbf4f944780548216831790557f77ede4f543e8314769d72574c0170e28268b82103f71eb258b68b733f6f69b5880548216831790557f1e0dae436a52ee88c9a147f65cd3099aebebe3733cef223502a00f47ce9dbbd080548216831790557ff199209447487d8fcbad0706acf77abf7a0329d5f870a8ad7ce807f8101aa3a180548216831790557f3b4a3cba993df9b8b643ec810b9c51bd655e0e209fa8ad857bb907cce05cc3d580548216831790557fa1faf950e2880ab16b4679f590e1a09fc3de5fd701dff75b814333b62bf2cf0a80548216831790557faa7e88cfcd5e66e4f4eb433e1fd1298842fc484684bb2272a043e2b4f72c7de980549091169091179055606890526105dc7fad6f8124f6081c2622ab3a16acd47af73d52fe87b755c3f897263c58ba3fdbd755610fa07f82eaf0fca2207f91f5027fcf68136c84edb7e928c081c42aa5bbc2a771c7d376556002600052619c407f7738fc943d038775bed8ef01a67b748c956896b0b810b5b4d06dc2c8632420e2558015611152576000805461ff0019169055604051600181527f7f26b83ff96e1f2b6a682f133852f6798a09c465da95921460cefb38474024989060200160405180910390a15b50505050565b60335460408051634d01ec9360e11b815290516001600160a01b03909216916391d14854918391639a03d926916004808201926020929091908290030181865afa1580156111aa573d6000803e3d6000fd5b505050506040513d601f19601f820116820180604052508101906111ce9190611674565b336040516001600160e01b031960e085901b16815260048101929092526001600160a01b03166024820152604401602060405180830381865afa158015611219573d6000803e3d6000fd5b505050506040513d601f19601f8201168201806040525081019061123d919061168d565b6112595760405162461bcd60e51b81526004016103e8906116aa565b61ffff919091166000908152606760205260409020805460ff1916911515919091179055565b6000806001600160a01b031660658360405161129b9190611737565b908152604051908190036020019020546001600160a01b0316141592915050565b600054610100900460ff166113275760405162461bcd60e51b815260206004820152602b60248201527f496e697469616c697a61626c653a20636f6e7472616374206973206e6f74206960448201526a6e697469616c697a696e6760a81b60648201526084016103e8565b603380546001600160a01b0319166001600160a01b0392909216919091179055565b803561ffff8116811461135b57600080fd5b919050565b6000806040838503121561137357600080fd5b8235915061138360208401611349565b90509250929050565b6000806040838503121561139f57600080fd5b8235600381106113ae57600080fd5b946020939093013593505050565b6000602082840312156113ce57600080fd5b6104da82611349565b634e487b7160e01b600052604160045260246000fd5b600082601f8301126113fe57600080fd5b813567ffffffffffffffff80821115611419576114196113d7565b604051601f8301601f19908116603f01168101908282118183101715611441576114416113d7565b8160405283815286602085880101111561145a57600080fd5b836020870160208301376000602085830101528094505050505092915050565b80356001600160a01b038116811461135b57600080fd5b600080604083850312156114a457600080fd5b823567ffffffffffffffff8111156114bb57600080fd5b6114c7858286016113ed565b9250506113836020840161147a565b60ff811681146114e557600080fd5b50565b6000602082840312156114fa57600080fd5b81356104da816114d6565b6000806040838503121561151857600080fd5b6113ae83611349565b6000806040838503121561153457600080fd5b82359150602083013567ffffffffffffffff81111561155257600080fd5b61155e858286016113ed565b9150509250929050565b60008060006060848603121561157d57600080fd5b6115868461147a565b92506115946020850161147a565b91506115a26040850161147a565b90509250925092565b6000602082840312156115bd57600080fd5b813567ffffffffffffffff8111156115d457600080fd5b6102dd848285016113ed565b80151581146114e557600080fd5b6000806040838503121561160157600080fd5b61160a83611349565b9150602083013561161a816115e0565b809150509250929050565b634e487b7160e01b600052601160045260246000fd5b80820281158282048414176102e1576102e1611625565b60008261166f57634e487b7160e01b600052601260045260246000fd5b500490565b60006020828403121561168657600080fd5b5051919050565b60006020828403121561169f57600080fd5b81516104da816115e0565b6020808252600d908201526c6e6f7420612062696c6c696e6760981b604082015260600190565b634e487b7160e01b600052602160045260246000fd5b604081016003841061170957634e487b7160e01b600052602160045260246000fd5b9281526020015290565b60005b8381101561172e578181015183820152602001611716565b50506000910152565b60008251611749818460208701611713565b9190910192915050565b6040815260008351806040840152611772816060850160208801611713565b6001600160a01b0393909316602083015250601f91909101601f191601606001919050565b6000602082840312156117a957600080fd5b81516104da816114d6565b60ff82811682821603908111156102e1576102e1611625565b600181815b808511156118085781600019048211156117ee576117ee611625565b808516156117fb57918102915b93841c93908002906117d2565b509250929050565b60008261181f575060016102e1565b8161182c575060006102e1565b8160018114611842576002811461184c57611868565b60019150506102e1565b60ff84111561185d5761185d611625565b50506001821b6102e1565b5060208310610133831016604e8410600b841016171561188b575081810a6102e1565b61189583836117cd565b80600019048211156118a9576118a9611625565b029392505050565b60006104da60ff84168361181056fea26469706673582212202ff8201289ac9bbdf5be3cafd3e0c218cf658abbfbf7e39a3fc591163a2c340264736f6c63430008110033",
  "linkReferences": {},
  "deployedLinkReferences": {}
}