{
  "_format": "hh-sol-artifact-1",
  "contractName": "NodeIdNFT",
  "sourceName": "contracts/NodeIdNFT.sol",
  "abi": [
    {
      "anonymous": false,
      "inputs": [
        {
          "indexed": true,
          "internalType": "address",
          "name": "owner",
          "type": "address"
        },
        {
          "indexed": true,
          "internalType": "address",
          "name": "approved",
          "type": "address"
        },
        {
          "indexed": true,
          "internalType": "uint256",
          "name": "tokenId",
          "type": "uint256"
        }
      ],
      "name": "Approval",
      "type": "event"
    },
    {
      "anonymous": false,
      "inputs": [
        {
          "indexed": true,
          "internalType": "address",
          "name": "owner",
          "type": "address"
        },
        {
          "indexed": true,
          "internalType": "address",
          "name": "operator",
          "type": "address"
        },
        {
          "indexed": false,
          "internalType": "bool",
          "name": "approved",
          "type": "bool"
        }
      ],
      "name": "ApprovalForAll",
      "type": "event"
    },
    {
      "anonymous": false,
      "inputs": [
        {
          "indexed": false,
          "internalType": "uint256",
          "name": "_tokenId",
          "type": "uint256"
        }
      ],
      "name": "BurnNFT",
      "type": "event"
    },
    {
      "anonymous": false,
      "inputs": [
        {
          "indexed": false,
          "internalType": "uint8",
          "name": "version",
          "type": "uint8"
        }
      ],
      "name": "Initialized",
      "type": "event"
    },
    {
      "anonymous": false,
      "inputs": [
        {
          "indexed": false,
          "internalType": "uint256",
          "name": "_tokenId",
          "type": "uint256"
        },
        {
          "indexed": false,
          "internalType": "address",
          "name": "_owner",
          "type": "address"
        },
        {
          "indexed": false,
          "internalType": "string",
          "name": "_nodeId",
          "type": "string"
        }
      ],
      "name": "NewMintedNFT",
      "type": "event"
    },
    {
      "anonymous": false,
      "inputs": [
        {
          "indexed": false,
          "internalType": "uint256",
          "name": "_tokenId",
          "type": "uint256"
        },
        {
          "indexed": false,
          "internalType": "string",
          "name": "_nodeId",
          "type": "string"
        }
      ],
      "name": "NewPremintedNFT",
      "type": "event"
    },
    {
      "anonymous": false,
      "inputs": [
        {
          "indexed": true,
          "internalType": "address",
          "name": "from",
          "type": "address"
        },
        {
          "indexed": true,
          "internalType": "address",
          "name": "to",
          "type": "address"
        },
        {
          "indexed": true,
          "internalType": "uint256",
          "name": "tokenId",
          "type": "uint256"
        }
      ],
      "name": "Transfer",
      "type": "event"
    },
    {
      "inputs": [
        {
          "internalType": "address",
          "name": "to",
          "type": "address"
        },
        {
          "internalType": "uint256",
          "name": "tokenId",
          "type": "uint256"
        }
      ],
      "name": "approve",
      "outputs": [],
      "stateMutability": "nonpayable",
      "type": "function"
    },
    {
      "inputs": [
        {
          "internalType": "address",
          "name": "owner",
          "type": "address"
        }
      ],
      "name": "balanceOf",
      "outputs": [
        {
          "internalType": "uint256",
          "name": "",
          "type": "uint256"
        }
      ],
      "stateMutability": "view",
      "type": "function"
    },
    {
      "inputs": [
        {
          "internalType": "uint256",
          "name": "tokenId",
          "type": "uint256"
        }
      ],
      "name": "burn",
      "outputs": [],
      "stateMutability": "nonpayable",
      "type": "function"
    },
    {
      "inputs": [],
      "name": "cautionPrice",
      "outputs": [
        {
          "internalType": "uint256",
          "name": "",
          "type": "uint256"
        }
      ],
      "stateMutability": "view",
      "type": "function"
    },
    {
      "inputs": [],
      "name": "deposit",
      "outputs": [],
      "stateMutability": "payable",
      "type": "function"
    },
    {
      "inputs": [
        {
          "internalType": "uint256",
          "name": "tokenId",
          "type": "uint256"
        }
      ],
      "name": "getApproved",
      "outputs": [
        {
          "internalType": "address",
          "name": "",
          "type": "address"
        }
      ],
      "stateMutability": "view",
      "type": "function"
    },
    {
      "inputs": [],
      "name": "getAvailablePreMint",
      "outputs": [
        {
          "internalType": "uint256",
          "name": "",
          "type": "uint256"
        }
      ],
      "stateMutability": "view",
      "type": "function"
    },
    {
      "inputs": [],
      "name": "getAvailablePreMintBlank",
      "outputs": [
        {
          "internalType": "uint256",
          "name": "",
          "type": "uint256"
        }
      ],
      "stateMutability": "view",
      "type": "function"
    },
    {
      "inputs": [
        {
          "internalType": "address",
          "name": "user",
          "type": "address"
        }
      ],
      "name": "getClaimableBalanceOf",
      "outputs": [
        {
          "internalType": "uint256",
          "name": "",
          "type": "uint256"
        }
      ],
      "stateMutability": "view",
      "type": "function"
    },
    {
      "inputs": [
        {
          "internalType": "address",
          "name": "user",
          "type": "address"
        }
      ],
      "name": "getDepositBalanceOf",
      "outputs": [
        {
          "internalType": "uint256",
          "name": "",
          "type": "uint256"
        }
      ],
      "stateMutability": "view",
      "type": "function"
    },
    {
      "inputs": [
        {
          "internalType": "address",
          "name": "user",
          "type": "address"
        }
      ],
      "name": "getFreeDepositOf",
      "outputs": [
        {
          "internalType": "uint256",
          "name": "",
          "type": "uint256"
        }
      ],
      "stateMutability": "view",
      "type": "function"
    },
    {
      "inputs": [
        {
          "internalType": "address",
          "name": "_accessControl",
          "type": "address"
        }
      ],
      "name": "initialize",
      "outputs": [],
      "stateMutability": "nonpayable",
      "type": "function"
    },
    {
      "inputs": [
        {
          "internalType": "address",
          "name": "owner",
          "type": "address"
        },
        {
          "internalType": "address",
          "name": "operator",
          "type": "address"
        }
      ],
      "name": "isApprovedForAll",
      "outputs": [
        {
          "internalType": "bool",
          "name": "",
          "type": "bool"
        }
      ],
      "stateMutability": "view",
      "type": "function"
    },
    {
      "inputs": [],
      "name": "mint",
      "outputs": [],
      "stateMutability": "nonpayable",
      "type": "function"
    },
    {
      "inputs": [],
      "name": "mintBlank",
      "outputs": [],
      "stateMutability": "nonpayable",
      "type": "function"
    },
    {
      "inputs": [],
      "name": "name",
      "outputs": [
        {
          "internalType": "string",
          "name": "",
          "type": "string"
        }
      ],
      "stateMutability": "view",
      "type": "function"
    },
    {
      "inputs": [
        {
          "internalType": "uint256",
          "name": "",
          "type": "uint256"
        }
      ],
      "name": "nodeIds",
      "outputs": [
        {
          "internalType": "string",
          "name": "",
          "type": "string"
        }
      ],
      "stateMutability": "view",
      "type": "function"
    },
    {
      "inputs": [
        {
          "internalType": "uint256",
          "name": "tokenId",
          "type": "uint256"
        }
      ],
      "name": "ownerOf",
      "outputs": [
        {
          "internalType": "address",
          "name": "",
          "type": "address"
        }
      ],
      "stateMutability": "view",
      "type": "function"
    },
    {
      "inputs": [
        {
          "internalType": "uint256",
          "name": "tokenId",
          "type": "uint256"
        }
      ],
      "name": "preMint",
      "outputs": [],
      "stateMutability": "nonpayable",
      "type": "function"
    },
    {
      "inputs": [
        {
          "internalType": "uint256",
          "name": "tokenId",
          "type": "uint256"
        },
        {
          "internalType": "string",
          "name": "nodeId",
          "type": "string"
        }
      ],
      "name": "preMint",
      "outputs": [],
      "stateMutability": "nonpayable",
      "type": "function"
    },
    {
      "inputs": [
        {
          "internalType": "uint256",
          "name": "",
          "type": "uint256"
        }
      ],
      "name": "preMintedBlankTokenId",
      "outputs": [
        {
          "internalType": "uint256",
          "name": "",
          "type": "uint256"
        }
      ],
      "stateMutability": "view",
      "type": "function"
    },
    {
      "inputs": [
        {
          "internalType": "uint256",
          "name": "",
          "type": "uint256"
        }
      ],
      "name": "preMintedTokenId",
      "outputs": [
        {
          "internalType": "uint256",
          "name": "",
          "type": "uint256"
        }
      ],
      "stateMutability": "view",
      "type": "function"
    },
    {
      "inputs": [
        {
          "internalType": "address payable",
          "name": "user",
          "type": "address"
        }
      ],
      "name": "refund",
      "outputs": [],
      "stateMutability": "nonpayable",
      "type": "function"
    },
    {
      "inputs": [
        {
          "internalType": "address",
          "name": "from",
          "type": "address"
        },
        {
          "internalType": "address",
          "name": "to",
          "type": "address"
        },
        {
          "internalType": "uint256",
          "name": "tokenId",
          "type": "uint256"
        }
      ],
      "name": "safeTransferFrom",
      "outputs": [],
      "stateMutability": "nonpayable",
      "type": "function"
    },
    {
      "inputs": [
        {
          "internalType": "address",
          "name": "from",
          "type": "address"
        },
        {
          "internalType": "address",
          "name": "to",
          "type": "address"
        },
        {
          "internalType": "uint256",
          "name": "tokenId",
          "type": "uint256"
        },
        {
          "internalType": "bytes",
          "name": "data",
          "type": "bytes"
        }
      ],
      "name": "safeTransferFrom",
      "outputs": [],
      "stateMutability": "nonpayable",
      "type": "function"
    },
    {
      "inputs": [
        {
          "internalType": "address",
          "name": "operator",
          "type": "address"
        },
        {
          "internalType": "bool",
          "name": "approved",
          "type": "bool"
        }
      ],
      "name": "setApprovalForAll",
      "outputs": [],
      "stateMutability": "nonpayable",
      "type": "function"
    },
    {
      "inputs": [
        {
          "internalType": "uint256",
          "name": "_caution",
          "type": "uint256"
        }
      ],
      "name": "setCautionPrice",
      "outputs": [],
      "stateMutability": "nonpayable",
      "type": "function"
    },
    {
      "inputs": [
        {
          "internalType": "uint256",
          "name": "tokenId",
          "type": "uint256"
        },
        {
          "internalType": "string",
          "name": "nodeId",
          "type": "string"
        }
      ],
      "name": "setNodeID",
      "outputs": [],
      "stateMutability": "nonpayable",
      "type": "function"
    },
    {
      "inputs": [
        {
          "internalType": "address",
          "name": "_subscriptions",
          "type": "address"
        }
      ],
      "name": "setSubscriptions",
      "outputs": [],
      "stateMutability": "nonpayable",
      "type": "function"
    },
    {
      "inputs": [
        {
          "internalType": "bytes4",
          "name": "interfaceId",
          "type": "bytes4"
        }
      ],
      "name": "supportsInterface",
      "outputs": [
        {
          "internalType": "bool",
          "name": "",
          "type": "bool"
        }
      ],
      "stateMutability": "view",
      "type": "function"
    },
    {
      "inputs": [],
      "name": "symbol",
      "outputs": [
        {
          "internalType": "string",
          "name": "",
          "type": "string"
        }
      ],
      "stateMutability": "view",
      "type": "function"
    },
    {
      "inputs": [
        {
          "internalType": "uint256",
          "name": "index",
          "type": "uint256"
        }
      ],
      "name": "tokenByIndex",
      "outputs": [
        {
          "internalType": "uint256",
          "name": "",
          "type": "uint256"
        }
      ],
      "stateMutability": "view",
      "type": "function"
    },
    {
      "inputs": [
        {
          "internalType": "address",
          "name": "owner",
          "type": "address"
        },
        {
          "internalType": "uint256",
          "name": "index",
          "type": "uint256"
        }
      ],
      "name": "tokenOfOwnerByIndex",
      "outputs": [
        {
          "internalType": "uint256",
          "name": "",
          "type": "uint256"
        }
      ],
      "stateMutability": "view",
      "type": "function"
    },
    {
      "inputs": [
        {
          "internalType": "uint256",
          "name": "tokenId",
          "type": "uint256"
        }
      ],
      "name": "tokenURI",
      "outputs": [
        {
          "internalType": "string",
          "name": "",
          "type": "string"
        }
      ],
      "stateMutability": "view",
      "type": "function"
    },
    {
      "inputs": [],
      "name": "totalSupply",
      "outputs": [
        {
          "internalType": "uint256",
          "name": "",
          "type": "uint256"
        }
      ],
      "stateMutability": "view",
      "type": "function"
    },
    {
      "inputs": [
        {
          "internalType": "address",
          "name": "from",
          "type": "address"
        },
        {
          "internalType": "address",
          "name": "to",
          "type": "address"
        },
        {
          "internalType": "uint256",
          "name": "tokenId",
          "type": "uint256"
        }
      ],
      "name": "transferFrom",
      "outputs": [],
      "stateMutability": "nonpayable",
      "type": "function"
    }
  ],
  "bytecode": "0x608060405234801561001057600080fd5b50613b14806100206000396000f3fe60806040526004361061020f5760003560e01c80638ad433ac11610118578063b88d4fde116100a0578063d0e30db01161006f578063d0e30db0146105e4578063e985e9c5146105ec578063f6ce0a4714610635578063f8e4bb0314610655578063fa89401a1461067557600080fd5b8063b88d4fde1461056d578063beb1859e1461058d578063c4d66de8146105a4578063c87b56dd146105c457600080fd5b806398543166116100e757806398543166146104cd5780639c4f7d59146104ed578063a027740e1461050d578063a22cb4651461052d578063b6f220aa1461054d57600080fd5b80638ad433ac146104585780639388282e146104785780639559acc21461049857806395d89b41146104b857600080fd5b806338890a7a1161019b5780635c063e841161016a5780635c063e84146103ce5780636352211e146103e357806370a0823114610403578063848275e914610423578063860054361461043857600080fd5b806338890a7a1461034e57806342842e0e1461036e57806342966c681461038e5780634f6ccce7146103ae57600080fd5b80631249c58b116101e25780631249c58b146102c557806318160ddd146102da578063181613a9146102f957806323b872dd1461030e5780632f745c591461032e57600080fd5b806301ffc9a71461021457806306fdde0314610249578063081812fc1461026b578063095ea7b3146102a3575b600080fd5b34801561022057600080fd5b5061023461022f36600461308e565b610695565b60405190151581526020015b60405180910390f35b34801561025557600080fd5b5061025e6106c0565b60405161024091906130fb565b34801561027757600080fd5b5061028b61028636600461310e565b610752565b6040516001600160a01b039091168152602001610240565b3480156102af57600080fd5b506102c36102be36600461313c565b610779565b005b3480156102d157600080fd5b506102c3610893565b3480156102e657600080fd5b506099545b604051908152602001610240565b34801561030557600080fd5b506102c36109c2565b34801561031a57600080fd5b506102c3610329366004613168565b610af2565b34801561033a57600080fd5b506102eb61034936600461313c565b610b24565b34801561035a57600080fd5b506102eb61036936600461310e565b610bba565b34801561037a57600080fd5b506102c3610389366004613168565b610bdb565b34801561039a57600080fd5b506102c36103a936600461310e565b610bf6565b3480156103ba57600080fd5b506102eb6103c936600461310e565b610ef4565b3480156103da57600080fd5b5060ff546102eb565b3480156103ef57600080fd5b5061028b6103fe36600461310e565b610f87565b34801561040f57600080fd5b506102eb61041e3660046131a9565b610fe7565b34801561042f57600080fd5b5060fe546102eb565b34801561044457600080fd5b506102c3610453366004613252565b61106d565b34801561046457600080fd5b506102c361047336600461310e565b6112da565b34801561048457600080fd5b506102eb6104933660046131a9565b61148c565b3480156104a457600080fd5b506102eb6104b33660046131a9565b61156a565b3480156104c457600080fd5b5061025e611659565b3480156104d957600080fd5b5061025e6104e836600461310e565b611668565b3480156104f957600080fd5b506102c36105083660046131a9565b611702565b34801561051957600080fd5b506102eb61052836600461310e565b611845565b34801561053957600080fd5b506102c36105483660046132bb565b611855565b34801561055957600080fd5b506102c3610568366004613252565b611864565b34801561057957600080fd5b506102c36105883660046132f4565b611a81565b34801561059957600080fd5b506102eb6101015481565b3480156105b057600080fd5b506102c36105bf3660046131a9565b611ab9565b3480156105d057600080fd5b5061025e6105df36600461310e565b611c1f565b6102c3611cb8565b3480156105f857600080fd5b50610234610607366004613374565b6001600160a01b039182166000908152606a6020908152604080832093909416825291909152205460ff1690565b34801561064157600080fd5b506102eb6106503660046131a9565b611d93565b34801561066157600080fd5b506102c361067036600461310e565b611e3a565b34801561068157600080fd5b506102c36106903660046131a9565b611f61565b60006001600160e01b0319821663780e9d6360e01b14806106ba57506106ba82612267565b92915050565b6060606580546106cf906133a2565b80601f01602080910402602001604051908101604052809291908181526020018280546106fb906133a2565b80156107485780601f1061071d57610100808354040283529160200191610748565b820191906000526020600020905b81548152906001019060200180831161072b57829003601f168201915b5050505050905090565b600061075d826122b7565b506000908152606960205260409020546001600160a01b031690565b600061078482610f87565b9050806001600160a01b0316836001600160a01b0316036107f65760405162461bcd60e51b815260206004820152602160248201527f4552433732313a20617070726f76616c20746f2063757272656e74206f776e656044820152603960f91b60648201526084015b60405180910390fd5b336001600160a01b038216148061081257506108128133610607565b6108845760405162461bcd60e51b815260206004820152603e60248201527f4552433732313a20617070726f76652063616c6c6572206973206e6f7420746f60448201527f6b656e206f776e6572206e6f7220617070726f76656420666f7220616c6c000060648201526084016107ed565b61088e8383612319565b505050565b60fe546000906108b55760405162461bcd60e51b81526004016107ed906133dc565b60006108c03361148c565b116108dd5760405162461bcd60e51b81526004016107ed90613421565b6108e633612387565b6109025760405162461bcd60e51b81526004016107ed90613490565b60fe805461091290600190613503565b8154811061092257610922613516565b90600052602060002001549050600061093a82610f87565b905061094881335b8461247e565b60fe8054806109595761095961352c565b600190038181906000526020600020016000905590557f3a8d7c1a4aa0b99f876077b74979ca84295ca35c793efd8aac1bcc4462c6d49c826109983390565b600085815260fb60205260409081902090516109b693929190613542565b60405180910390a15050565b60ff546000906109e45760405162461bcd60e51b81526004016107ed906133dc565b60006109ef3361148c565b11610a0c5760405162461bcd60e51b81526004016107ed90613421565b610a1533612387565b610a315760405162461bcd60e51b81526004016107ed90613490565b60ff8054610a4190600190613503565b81548110610a5157610a51613516565b906000526020600020015490506000610a6982610f87565b9050610a758133610942565b60ff805480610a8657610a8661352c565b600190038181906000526020600020016000905590557f3a8d7c1a4aa0b99f876077b74979ca84295ca35c793efd8aac1bcc4462c6d49c82610ac53390565b604080519283526001600160a01b03909116602083015260609082018190526000908201526080016109b6565b610afd335b82612625565b610b195760405162461bcd60e51b81526004016107ed906135e4565b61088e83838361247e565b6000610b2f83610fe7565b8210610b915760405162461bcd60e51b815260206004820152602b60248201527f455243373231456e756d657261626c653a206f776e657220696e646578206f7560448201526a74206f6620626f756e647360a81b60648201526084016107ed565b506001600160a01b03919091166000908152609760209081526040808320938352929052205490565b60ff8181548110610bca57600080fd5b600091825260209091200154905081565b61088e83838360405180602001604052806000815250611a81565b610bff33610af7565b80610c0e5750610c0e336126a4565b610c805760405162461bcd60e51b815260206004820152603e60248201527f4e6f646549644e46543a2063616c6c6572206973206e6f7420746f6b656e206f60448201527f776e6572206e6f7220617070726f766564206e6f722061206275726e6572000060648201526084016107ed565b6101005460405163b87c723160e01b8152600481018390526001600160a01b0390911690819063b87c723190602401602060405180830381865afa158015610ccc573d6000803e3d6000fd5b505050506040513d601f19601f82011682018060405250810190610cf09190613632565b15610d4c5760405162461bcd60e51b815260206004820152602660248201527f4e6f646549644e46543a2043616e2774206275726e20616e2061637469766520604482015265139bd919525160d21b60648201526084016107ed565b6001600160a01b03811663689b0098336040516001600160e01b031960e084901b1681526001600160a01b039091166004820152602401602060405180830381865afa158015610da0573d6000803e3d6000fd5b505050506040513d601f19601f82011682018060405250810190610dc49190613632565b15610ebb576001600160a01b038116633febcb0b336040516001600160e01b031960e084901b1681526001600160a01b03909116600482015260248101859052604401602060405180830381865afa158015610e24573d6000803e3d6000fd5b505050506040513d601f19601f82011682018060405250810190610e489190613632565b15610ebb5760405162461bcd60e51b815260206004820152603a60248201527f4e6f646549644e46543a20746865726520697320612070656e64696e6720726560448201527f66756e642c2063616e2774206275726e2074686520746f6b656e00000000000060648201526084016107ed565b610ec482612789565b6040518281527f167dc8a03fd14ba942cfd55087be2efd90f784c864bc635fbfea2d760a129931906020016109b6565b6000610eff60995490565b8210610f625760405162461bcd60e51b815260206004820152602c60248201527f455243373231456e756d657261626c653a20676c6f62616c20696e646578206f60448201526b7574206f6620626f756e647360a01b60648201526084016107ed565b60998281548110610f7557610f75613516565b90600052602060002001549050919050565b6000818152606760205260408120546001600160a01b0316806106ba5760405162461bcd60e51b8152602060048201526018602482015277115490cdcc8c4e881a5b9d985b1a59081d1bdad95b88125160421b60448201526064016107ed565b60006001600160a01b0382166110515760405162461bcd60e51b815260206004820152602960248201527f4552433732313a2061646472657373207a65726f206973206e6f7420612076616044820152683634b21037bbb732b960b91b60648201526084016107ed565b506001600160a01b031660009081526068602052604090205490565b60c9546040805163d539139360e01b815290516001600160a01b03909216916391d1485491839163d5391393916004808201926020929091908290030181865afa1580156110bf573d6000803e3d6000fd5b505050506040513d601f19601f820116820180604052508101906110e3919061364f565b336040516001600160e01b031960e085901b16815260048101929092526001600160a01b03166024820152604401602060405180830381865afa15801561112e573d6000803e3d6000fd5b505050506040513d601f19601f820116820180604052508101906111529190613632565b61116e5760405162461bcd60e51b81526004016107ed90613668565b611177826122b7565b60408051600080825260208083018085528351902086835260fb9091529083902090926111a4920161368e565b60405160208183030381529060405280519060200120146112225760405162461bcd60e51b815260206004820152603260248201527f4e6f646549644e46543a204e6f6465494420697320616c7265616479206669656044820152716c642c2063616e277420656469742069742160701b60648201526084016107ed565b61122b81612830565b156112485760405162461bcd60e51b81526004016107ed90613704565b600082815260fb602052604090206112608282613799565b508160fd6000836040516020016112779190613859565b604051602081830303815290604052805190602001208152602001908152602001600020819055507f3a8d7c1a4aa0b99f876077b74979ca84295ca35c793efd8aac1bcc4462c6d49c826112ca84610f87565b836040516109b693929190613875565b60c9546040805163d539139360e01b815290516001600160a01b03909216916391d1485491839163d5391393916004808201926020929091908290030181865afa15801561132c573d6000803e3d6000fd5b505050506040513d601f19601f82011682018060405250810190611350919061364f565b336040516001600160e01b031960e085901b16815260048101929092526001600160a01b03166024820152604401602060405180830381865afa15801561139b573d6000803e3d6000fd5b505050506040513d601f19601f820116820180604052508101906113bf9190613632565b6113db5760405162461bcd60e51b81526004016107ed90613668565b806000036113fb5760405162461bcd60e51b81526004016107ed906138a8565b611415338260405180602001604052806000815250612877565b60ff805460018101825560009182527fe08ec2af2cfc251225e1968fd6ca21e4044f129bffa95bac3503be8bdb30a36701829055604080518381526020810182905280820192909252517f59e4cfbef21c812598131118ed9a0f67df27675019b514c69b714e5f285a87799181900360600190a150565b60006001600160a01b0382166114b45760405162461bcd60e51b81526004016107ed906138e9565b6001600160a01b038216600090815260fc602052604090205415611562576000805b6001600160a01b038416600090815260fc602052604090205481101561155b576001600160a01b038416600090815260fc6020526040902080548290811061152057611520613516565b6000918252602082206002909102015460ff1615159003611549578161154581613935565b9250505b8061155381613935565b9150506114d6565b5092915050565b506000919050565b60006001600160a01b0382166115925760405162461bcd60e51b81526004016107ed906138e9565b6000805b6001600160a01b038416600090815260fc602052604090205481101561155b576001600160a01b038416600090815260fc602052604090208054829081106115e0576115e0613516565b600091825260209091206002909102015460ff161515600103611647576001600160a01b038416600090815260fc6020526040902080548290811061162757611627613516565b90600052602060002090600202016001015482611644919061394e565b91505b8061165181613935565b915050611596565b6060606680546106cf906133a2565b60fb6020526000908152604090208054611681906133a2565b80601f01602080910402602001604051908101604052809291908181526020018280546116ad906133a2565b80156116fa5780601f106116cf576101008083540402835291602001916116fa565b820191906000526020600020905b8154815290600101906020018083116116dd57829003601f168201915b505050505081565b60c95460408051631d6c8e3f60e21b815290516001600160a01b03909216916391d148549183916375b238fc916004808201926020929091908290030181865afa158015611754573d6000803e3d6000fd5b505050506040513d601f19601f82011682018060405250810190611778919061364f565b336040516001600160e01b031960e085901b16815260048101929092526001600160a01b03166024820152604401602060405180830381865afa1580156117c3573d6000803e3d6000fd5b505050506040513d601f19601f820116820180604052508101906117e79190613632565b6118225760405162461bcd60e51b815260206004820152600c60248201526b3737ba1030b71030b236b4b760a11b60448201526064016107ed565b61010080546001600160a01b0319166001600160a01b0392909216919091179055565b60fe8181548110610bca57600080fd5b6118603383836128aa565b5050565b60c9546040805163d539139360e01b815290516001600160a01b03909216916391d1485491839163d5391393916004808201926020929091908290030181865afa1580156118b6573d6000803e3d6000fd5b505050506040513d601f19601f820116820180604052508101906118da919061364f565b336040516001600160e01b031960e085901b16815260048101929092526001600160a01b03166024820152604401602060405180830381865afa158015611925573d6000803e3d6000fd5b505050506040513d601f19601f820116820180604052508101906119499190613632565b6119655760405162461bcd60e51b81526004016107ed90613668565b816000036119855760405162461bcd60e51b81526004016107ed906138a8565b61198e81612830565b156119ab5760405162461bcd60e51b81526004016107ed90613704565b6119c5338360405180602001604052806000815250612877565b600082815260fb602052604090206119dd8282613799565b5060fe805460018101825560009182527f54075df80ec1ae6ac9100e1fd0ebf3246c17f5c933137af392011f4c5f61513a01839055604051839160fd91611a28908590602001613859565b604051602081830303815290604052805190602001208152602001908152602001600020819055507f59e4cfbef21c812598131118ed9a0f67df27675019b514c69b714e5f285a877982826040516109b6929190613961565b611a8b3383612625565b611aa75760405162461bcd60e51b81526004016107ed906135e4565b611ab384848484612978565b50505050565b600054610100900460ff1615808015611ad95750600054600160ff909116105b80611af35750303b158015611af3575060005460ff166001145b611b565760405162461bcd60e51b815260206004820152602e60248201527f496e697469616c697a61626c653a20636f6e747261637420697320616c72656160448201526d191e481a5b9a5d1a585b1a5e995960921b60648201526084016107ed565b6000805460ff191660011790558015611b79576000805461ff0019166101001790555b611b82826129ab565b611bc860405180604001604052806009815260200168139bd919525913919560ba1b8152506040518060400160405280600381526020016213925160ea1b8152506129f4565b611bd0612a25565b671bc16d674ec80000610101558015611860576000805461ff0019169055604051600181527f7f26b83ff96e1f2b6a682f133852f6798a09c465da95921460cefb3847402498906020016109b6565b6060611c2a826122b7565b6000611c6660408051808201909152601981527f68747470733a2f2f6170702e6e6f647a2e6e6574776f726b2f00000000000000602082015290565b90506000815111611c865760405180602001604052806000815250611cb1565b80611c9084612a4e565b604051602001611ca192919061397a565b6040516020818303038152906040525b9392505050565b610101543414611d425760405162461bcd60e51b815260206004820152604960248201527f4e6f646549644e46543a20596f75206d757374206465706f736974207468652060448201527f65786163742063617574696f6e20707269636520287365652067657443617574606482015268696f6e50726963652960b81b608482015260a4016107ed565b604080518082018252600080825234602080840191825233835260fc81529382208054600180820183559184529490922092516002909402909201805460ff19169315159390931783559051910155565b60006001600160a01b038216611dbb5760405162461bcd60e51b81526004016107ed906138e9565b6000805b6001600160a01b038416600090815260fc602052604090205481101561155b576001600160a01b038416600090815260fc60205260409020805482908110611e0957611e09613516565b90600052602060002090600202016001015482611e26919061394e565b915080611e3281613935565b915050611dbf565b60c95460408051634d01ec9360e11b815290516001600160a01b03909216916391d14854918391639a03d926916004808201926020929091908290030181865afa158015611e8c573d6000803e3d6000fd5b505050506040513d601f19601f82011682018060405250810190611eb0919061364f565b336040516001600160e01b031960e085901b16815260048101929092526001600160a01b03166024820152604401602060405180830381865afa158015611efb573d6000803e3d6000fd5b505050506040513d601f19601f82011682018060405250810190611f1f9190613632565b611f5b5760405162461bcd60e51b815260206004820152600d60248201526c6e6f7420612062696c6c696e6760981b60448201526064016107ed565b61010155565b610100546001600160a01b0316336001600160a01b03161480611f885750611f8833612b4f565b6120045760405162461bcd60e51b815260206004820152604160248201527f4e6f646549644e46543a2063616c6c6572206973206e6f74206120726566756e60448201527f6465722075736572206e6f7220737562736372697074696f6e20636f6e7472616064820152601d60fa1b608482015260a4016107ed565b6001600160a01b038116600090815260fc60205260409020546120755760405162461bcd60e51b8152602060048201526024808201527f4e6f646549644e46543a204e6f2063617574696f6e206c65667420746f207265604482015263199d5b9960e21b60648201526084016107ed565b60008060005b6001600160a01b038416600090815260fc60205260409020548110156120fc576001600160a01b038416600090815260fc602052604090208054829081106120c5576120c5613516565b600091825260209091206002909102015460ff1615156001036120ea578092506120fc565b806120f481613935565b91505061207b565b506001600160a01b038316600090815260fc6020526040902080548390811061212757612127613516565b6000918252602080832060016002909302018201546001600160a01b038716845260fc90915260409092208054929350916121629190613503565b8154811061217257612172613516565b906000526020600020906002020160fc6000856001600160a01b03166001600160a01b0316815260200190815260200160002083815481106121b6576121b6613516565b60009182526020808320845460029390930201805460ff191660ff909316151592909217825560019384015493909101929092556001600160a01b038516815260fc9091526040902080548061220e5761220e61352c565b600082815260208120600260001990930192830201805460ff1916815560010181905591556040516001600160a01b0385169183156108fc02918491818181858888f19350505050158015611ab3573d6000803e3d6000fd5b60006001600160e01b031982166380ac58cd60e01b148061229857506001600160e01b03198216635b5e139f60e01b145b806106ba57506301ffc9a760e01b6001600160e01b03198316146106ba565b6000818152606760205260409020546001600160a01b03166123165760405162461bcd60e51b8152602060048201526018602482015277115490cdcc8c4e881a5b9d985b1a59081d1bdad95b88125160421b60448201526064016107ed565b50565b600081815260696020526040902080546001600160a01b0319166001600160a01b038416908117909155819061234e82610f87565b6001600160a01b03167f8c5be1e5ebec7d5bd14f71427d1e84f3dd0314c0f7b2291e5b200ac8c7c3b92560405160405180910390a45050565b6001600160a01b038116600090815260fc6020526040812054156115625760005b6001600160a01b038316600090815260fc6020526040902054811015612475576001600160a01b038316600090815260fc602052604090208054829081106123f2576123f2613516565b6000918252602082206002909102015460ff1615159003612463576001600160a01b038316600090815260fc602052604090208054600191908390811061243b5761243b613516565b60009182526020909120600290910201805460ff191691151591909117905550600192915050565b8061246d81613935565b9150506123a8565b50600092915050565b826001600160a01b031661249182610f87565b6001600160a01b0316146124f55760405162461bcd60e51b815260206004820152602560248201527f4552433732313a207472616e736665722066726f6d20696e636f72726563742060448201526437bbb732b960d91b60648201526084016107ed565b6001600160a01b0382166125575760405162461bcd60e51b8152602060048201526024808201527f4552433732313a207472616e7366657220746f20746865207a65726f206164646044820152637265737360e01b60648201526084016107ed565b612562838383612ba1565b61256d600082612319565b6001600160a01b0383166000908152606860205260408120805460019290612596908490613503565b90915550506001600160a01b03821660009081526068602052604081208054600192906125c490849061394e565b909155505060008181526067602052604080822080546001600160a01b0319166001600160a01b0386811691821790925591518493918716917fddf252ad1be2c89b69c2b068fc378daa952ba7f163c4a11628f55a4df523b3ef91a4505050565b60008061263183610f87565b9050806001600160a01b0316846001600160a01b0316148061267857506001600160a01b038082166000908152606a602090815260408083209388168352929052205460ff165b8061269c5750836001600160a01b031661269184610752565b6001600160a01b0316145b949350505050565b60c9546040805163282c51f360e01b815290516000926001600160a01b0316916391d1485491839163282c51f39160048083019260209291908290030181865afa1580156126f6573d6000803e3d6000fd5b505050506040513d601f19601f8201168201806040525081019061271a919061364f565b6040516001600160e01b031960e084901b16815260048101919091526001600160a01b0385166024820152604401602060405180830381865afa158015612765573d6000803e3d6000fd5b505050506040513d601f19601f820116820180604052508101906106ba9190613632565b600061279482610f87565b90506127a281600084612ba1565b6127ad600083612319565b6001600160a01b03811660009081526068602052604081208054600192906127d6908490613503565b909155505060008281526067602052604080822080546001600160a01b0319169055518391906001600160a01b038416907fddf252ad1be2c89b69c2b068fc378daa952ba7f163c4a11628f55a4df523b3ef908390a45050565b600060fd6000836040516020016128479190613859565b60405160208183030381529060405280519060200120815260200190815260200160002054600014159050919050565b6128818383612c59565b61288e6000848484612da7565b61088e5760405162461bcd60e51b81526004016107ed906139a9565b816001600160a01b0316836001600160a01b03160361290b5760405162461bcd60e51b815260206004820152601960248201527f4552433732313a20617070726f766520746f2063616c6c65720000000000000060448201526064016107ed565b6001600160a01b038381166000818152606a6020908152604080832094871680845294825291829020805460ff191686151590811790915591519182527f17307eab39ab6107e8899845ad3d59bd9653f200f220920489ca2b5937696c31910160405180910390a3505050565b61298384848461247e565b61298f84848484612da7565b611ab35760405162461bcd60e51b81526004016107ed906139a9565b600054610100900460ff166129d25760405162461bcd60e51b81526004016107ed906139fb565b60c980546001600160a01b0319166001600160a01b0392909216919091179055565b600054610100900460ff16612a1b5760405162461bcd60e51b81526004016107ed906139fb565b6118608282612ea8565b600054610100900460ff16612a4c5760405162461bcd60e51b81526004016107ed906139fb565b565b606081600003612a755750506040805180820190915260018152600360fc1b602082015290565b8160005b8115612a9f5780612a8981613935565b9150612a989050600a83613a5c565b9150612a79565b60008167ffffffffffffffff811115612aba57612aba6131c6565b6040519080825280601f01601f191660200182016040528015612ae4576020820181803683370190505b5090505b841561269c57612af9600183613503565b9150612b06600a86613a70565b612b1190603061394e565b60f81b818381518110612b2657612b26613516565b60200101906001600160f81b031916908160001a905350612b48600a86613a5c565b9450612ae8565b60c95460408051632cb0667960e11b815290516000926001600160a01b0316916391d14854918391635960ccf29160048083019260209291908290030181865afa1580156126f6573d6000803e3d6000fd5b6001600160a01b038316612bfc57612bf781609980546000838152609a60205260408120829055600182018355919091527f72a152ddfb8e864297c917af52ea6c1c68aead0fee1a62673fcc7e0c94979d000155565b612c1f565b816001600160a01b0316836001600160a01b031614612c1f57612c1f8382612ee8565b6001600160a01b038216612c365761088e81612f85565b826001600160a01b0316826001600160a01b03161461088e5761088e8282613034565b6001600160a01b038216612caf5760405162461bcd60e51b815260206004820181905260248201527f4552433732313a206d696e7420746f20746865207a65726f206164647265737360448201526064016107ed565b6000818152606760205260409020546001600160a01b031615612d145760405162461bcd60e51b815260206004820152601c60248201527f4552433732313a20746f6b656e20616c7265616479206d696e7465640000000060448201526064016107ed565b612d2060008383612ba1565b6001600160a01b0382166000908152606860205260408120805460019290612d4990849061394e565b909155505060008181526067602052604080822080546001600160a01b0319166001600160a01b03861690811790915590518392907fddf252ad1be2c89b69c2b068fc378daa952ba7f163c4a11628f55a4df523b3ef908290a45050565b60006001600160a01b0384163b15612e9d57604051630a85bd0160e11b81526001600160a01b0385169063150b7a0290612deb903390899088908890600401613a84565b6020604051808303816000875af1925050508015612e26575060408051601f3d908101601f19168201909252612e2391810190613ac1565b60015b612e83573d808015612e54576040519150601f19603f3d011682016040523d82523d6000602084013e612e59565b606091505b508051600003612e7b5760405162461bcd60e51b81526004016107ed906139a9565b805181602001fd5b6001600160e01b031916630a85bd0160e11b14905061269c565b506001949350505050565b600054610100900460ff16612ecf5760405162461bcd60e51b81526004016107ed906139fb565b6065612edb8382613799565b50606661088e8282613799565b60006001612ef584610fe7565b612eff9190613503565b600083815260986020526040902054909150808214612f52576001600160a01b03841660009081526097602090815260408083208584528252808320548484528184208190558352609890915290208190555b5060009182526098602090815260408084208490556001600160a01b039094168352609781528383209183525290812055565b609954600090612f9790600190613503565b6000838152609a602052604081205460998054939450909284908110612fbf57612fbf613516565b906000526020600020015490508060998381548110612fe057612fe0613516565b6000918252602080832090910192909255828152609a909152604080822084905585825281205560998054806130185761301861352c565b6001900381819060005260206000200160009055905550505050565b600061303f83610fe7565b6001600160a01b039093166000908152609760209081526040808320868452825280832085905593825260989052919091209190915550565b6001600160e01b03198116811461231657600080fd5b6000602082840312156130a057600080fd5b8135611cb181613078565b60005b838110156130c65781810151838201526020016130ae565b50506000910152565b600081518084526130e78160208601602086016130ab565b601f01601f19169290920160200192915050565b602081526000611cb160208301846130cf565b60006020828403121561312057600080fd5b5035919050565b6001600160a01b038116811461231657600080fd5b6000806040838503121561314f57600080fd5b823561315a81613127565b946020939093013593505050565b60008060006060848603121561317d57600080fd5b833561318881613127565b9250602084013561319881613127565b929592945050506040919091013590565b6000602082840312156131bb57600080fd5b8135611cb181613127565b634e487b7160e01b600052604160045260246000fd5b600067ffffffffffffffff808411156131f7576131f76131c6565b604051601f8501601f19908116603f0116810190828211818310171561321f5761321f6131c6565b8160405280935085815286868601111561323857600080fd5b858560208301376000602087830101525050509392505050565b6000806040838503121561326557600080fd5b82359150602083013567ffffffffffffffff81111561328357600080fd5b8301601f8101851361329457600080fd5b6132a3858235602084016131dc565b9150509250929050565b801515811461231657600080fd5b600080604083850312156132ce57600080fd5b82356132d981613127565b915060208301356132e9816132ad565b809150509250929050565b6000806000806080858703121561330a57600080fd5b843561331581613127565b9350602085013561332581613127565b925060408501359150606085013567ffffffffffffffff81111561334857600080fd5b8501601f8101871361335957600080fd5b613368878235602084016131dc565b91505092959194509250565b6000806040838503121561338757600080fd5b823561339281613127565b915060208301356132e981613127565b600181811c908216806133b657607f821691505b6020821081036133d657634e487b7160e01b600052602260045260246000fd5b50919050565b60208082526025908201527f4e6f646549644e46543a204e6f207072656d696e7420746f6b656e20617661696040820152646c61626c6560d81b606082015260800190565b60208082526049908201527f4e6f646549644e46543a204e6f206465706f7369742120596f75206d7573742060408201527f6465706f73697420612063617574696f6e207072696f72206d696e74696e672060608201526818481b9bd91948125160ba1b608082015260a00190565b60208082526038908201527f4e6f646549644e46543a2043616e277420636f6e73756d65206120636175746960408201527f6f6e207072696f72206d696e74696e6720796f75204e46540000000000000000606082015260800190565b634e487b7160e01b600052601160045260246000fd5b818103818111156106ba576106ba6134ed565b634e487b7160e01b600052603260045260246000fd5b634e487b7160e01b600052603160045260246000fd5b8381526000602060018060a01b03851681840152606060408401526000845461356a816133a2565b806060870152608060018084166000811461358c57600181146135a6576135d4565b60ff1985168984015283151560051b8901830195506135d4565b896000528660002060005b858110156135cc5781548b82018601529083019088016135b1565b8a0184019650505b50939a9950505050505050505050565b6020808252602e908201527f4552433732313a2063616c6c6572206973206e6f7420746f6b656e206f776e6560408201526d1c881b9bdc88185c1c1c9bdd995960921b606082015260800190565b60006020828403121561364457600080fd5b8151611cb1816132ad565b60006020828403121561366157600080fd5b5051919050565b6020808252600c908201526b3737ba10309036b4b73a32b960a11b604082015260600190565b600080835461369c816133a2565b600182811680156136b457600181146136c9576136f8565b60ff19841687528215158302870194506136f8565b8760005260208060002060005b858110156136ef5781548a8201529084019082016136d6565b50505082870194505b50929695505050505050565b60208082526027908201527f4e6f646549644e46543a204e6f6465494420697320616c7265616479207265676040820152661a5cdd195c995960ca1b606082015260800190565b601f82111561088e57600081815260208120601f850160051c810160208610156137725750805b601f850160051c820191505b818110156137915782815560010161377e565b505050505050565b815167ffffffffffffffff8111156137b3576137b36131c6565b6137c7816137c184546133a2565b8461374b565b602080601f8311600181146137fc57600084156137e45750858301515b600019600386901b1c1916600185901b178555613791565b600085815260208120601f198616915b8281101561382b5788860151825594840194600190910190840161380c565b50858210156138495787850151600019600388901b60f8161c191681555b5050505050600190811b01905550565b6000825161386b8184602087016130ab565b9190910192915050565b8381526001600160a01b038316602082015260606040820181905260009061389f908301846130cf565b95945050505050565b60208082526021908201527f4e6f646549644e46543a20746f6b656e644964203020697320726573657276656040820152601960fa1b606082015260800190565b6020808252602c908201527f4e6f646549644e46543a2061646472657373207a65726f206973206e6f74206160408201526b103b30b634b21037bbb732b960a11b606082015260800190565b600060018201613947576139476134ed565b5060010190565b808201808211156106ba576106ba6134ed565b82815260406020820152600061269c60408301846130cf565b6000835161398c8184602088016130ab565b8351908301906139a08183602088016130ab565b01949350505050565b60208082526032908201527f4552433732313a207472616e7366657220746f206e6f6e20455243373231526560408201527131b2b4bb32b91034b6b83632b6b2b73a32b960711b606082015260800190565b6020808252602b908201527f496e697469616c697a61626c653a20636f6e7472616374206973206e6f74206960408201526a6e697469616c697a696e6760a81b606082015260800190565b634e487b7160e01b600052601260045260246000fd5b600082613a6b57613a6b613a46565b500490565b600082613a7f57613a7f613a46565b500690565b6001600160a01b0385811682528416602082015260408101839052608060608201819052600090613ab7908301846130cf565b9695505050505050565b600060208284031215613ad357600080fd5b8151611cb18161307856fea26469706673582212207c3217ca5ac151050a308f9eff4f5b62ace0f9e6d0300ed9ed4a51be236b5ac064736f6c63430008110033",
  "linkReferences": {},
  "deployedLinkReferences": {}
}