{
  "_format": "hh-sol-artifact-1",
  "contractName": "Subscriptions",
  "sourceName": "contracts/Subscriptions.sol",
  "abi": [
    {
      "anonymous": false,
      "inputs": [
        {
          "indexed": false,
          "internalType": "address",
          "name": "_oldWallet",
          "type": "address"
        },
        {
          "indexed": false,
          "internalType": "address",
          "name": "_newWallet",
          "type": "address"
        }
      ],
      "name": "DestinationWalletChanged",
      "type": "event"
    },
    {
      "anonymous": false,
      "inputs": [
        {
          "indexed": false,
          "internalType": "uint8",
          "name": "version",
          "type": "uint8"
        }
      ],
      "name": "Initialized",
      "type": "event"
    },
    {
      "anonymous": false,
      "inputs": [
        {
          "indexed": false,
          "internalType": "address",
          "name": "_wallet",
          "type": "address"
        },
        {
          "indexed": false,
          "internalType": "uint16",
          "name": "_countryOfResidence",
          "type": "uint16"
        }
      ],
      "name": "NewCustomerRegistered",
      "type": "event"
    },
    {
      "anonymous": false,
      "inputs": [
        {
          "indexed": false,
          "internalType": "address",
          "name": "_wallet",
          "type": "address"
        },
        {
          "indexed": false,
          "internalType": "uint256",
          "name": "_tokenId",
          "type": "uint256"
        },
        {
          "indexed": false,
          "internalType": "uint256",
          "name": "_startTs",
          "type": "uint256"
        },
        {
          "indexed": false,
          "internalType": "string",
          "name": "_currency",
          "type": "string"
        },
        {
          "indexed": false,
          "internalType": "uint256",
          "name": "_amount",
          "type": "uint256"
        },
        {
          "indexed": false,
          "internalType": "uint256",
          "name": "_refundPeriods",
          "type": "uint256"
        }
      ],
      "name": "NewRefund",
      "type": "event"
    },
    {
      "anonymous": false,
      "inputs": [
        {
          "indexed": false,
          "internalType": "address",
          "name": "_wallet",
          "type": "address"
        },
        {
          "indexed": false,
          "internalType": "uint256",
          "name": "_tokenId",
          "type": "uint256"
        },
        {
          "indexed": false,
          "internalType": "enum Billing.SubscriptionPeriod",
          "name": "_period",
          "type": "uint8"
        },
        {
          "indexed": false,
          "internalType": "uint8",
          "name": "_prepaidPeriods",
          "type": "uint8"
        },
        {
          "indexed": false,
          "internalType": "string",
          "name": "_currency",
          "type": "string"
        },
        {
          "indexed": false,
          "internalType": "uint256",
          "name": "_startTs",
          "type": "uint256"
        },
        {
          "indexed": false,
          "internalType": "uint256",
          "name": "_endTs",
          "type": "uint256"
        },
        {
          "indexed": false,
          "internalType": "uint256",
          "name": "_usdPrice",
          "type": "uint256"
        },
        {
          "indexed": false,
          "internalType": "uint256",
          "name": "_usdTaxes",
          "type": "uint256"
        },
        {
          "indexed": false,
          "internalType": "uint256",
          "name": "_priceRate",
          "type": "uint256"
        },
        {
          "indexed": false,
          "internalType": "uint256",
          "name": "_vatRate",
          "type": "uint256"
        }
      ],
      "name": "NewSubscription",
      "type": "event"
    },
    {
      "anonymous": false,
      "inputs": [
        {
          "indexed": false,
          "internalType": "address",
          "name": "_wallet",
          "type": "address"
        },
        {
          "indexed": false,
          "internalType": "address",
          "name": "_payer",
          "type": "address"
        },
        {
          "indexed": false,
          "internalType": "uint256",
          "name": "_tokenId",
          "type": "uint256"
        },
        {
          "indexed": false,
          "internalType": "string",
          "name": "_currency",
          "type": "string"
        },
        {
          "indexed": false,
          "internalType": "uint256",
          "name": "_amount",
          "type": "uint256"
        }
      ],
      "name": "RefundCompleted",
      "type": "event"
    },
    {
      "anonymous": false,
      "inputs": [
        {
          "indexed": false,
          "internalType": "address",
          "name": "_wallet",
          "type": "address"
        },
        {
          "indexed": false,
          "internalType": "uint256",
          "name": "_tokenId",
          "type": "uint256"
        },
        {
          "indexed": false,
          "internalType": "enum Billing.SubscriptionPeriod",
          "name": "_period",
          "type": "uint8"
        },
        {
          "indexed": false,
          "internalType": "uint8",
          "name": "_addedPeriods",
          "type": "uint8"
        },
        {
          "indexed": false,
          "internalType": "string",
          "name": "_currency",
          "type": "string"
        },
        {
          "indexed": false,
          "internalType": "uint256",
          "name": "_startTs",
          "type": "uint256"
        },
        {
          "indexed": false,
          "internalType": "uint256",
          "name": "_endTs",
          "type": "uint256"
        },
        {
          "indexed": false,
          "internalType": "uint256",
          "name": "_usdPrice",
          "type": "uint256"
        },
        {
          "indexed": false,
          "internalType": "uint256",
          "name": "_usdTaxes",
          "type": "uint256"
        },
        {
          "indexed": false,
          "internalType": "uint256",
          "name": "_priceRate",
          "type": "uint256"
        },
        {
          "indexed": false,
          "internalType": "uint256",
          "name": "_vatRate",
          "type": "uint256"
        }
      ],
      "name": "ReloadSubscription",
      "type": "event"
    },
    {
      "anonymous": false,
      "inputs": [
        {
          "indexed": false,
          "internalType": "address",
          "name": "_wallet",
          "type": "address"
        },
        {
          "indexed": false,
          "internalType": "uint256",
          "name": "_tokenId",
          "type": "uint256"
        },
        {
          "indexed": false,
          "internalType": "uint256",
          "name": "_startTs",
          "type": "uint256"
        },
        {
          "indexed": false,
          "internalType": "uint256",
          "name": "_endTs",
          "type": "uint256"
        },
        {
          "indexed": false,
          "internalType": "uint256",
          "name": "_blocktime",
          "type": "uint256"
        }
      ],
      "name": "StopSubscription",
      "type": "event"
    },
    {
      "inputs": [
        {
          "internalType": "uint256",
          "name": "_slots",
          "type": "uint256"
        }
      ],
      "name": "addValidationSlots",
      "outputs": [],
      "stateMutability": "nonpayable",
      "type": "function"
    },
    {
      "inputs": [
        {
          "internalType": "address",
          "name": "_newDestinationWallet",
          "type": "address"
        }
      ],
      "name": "changeDestationWallet",
      "outputs": [],
      "stateMutability": "nonpayable",
      "type": "function"
    },
    {
      "inputs": [
        {
          "internalType": "address",
          "name": "_wallet",
          "type": "address"
        },
        {
          "internalType": "uint256",
          "name": "_tokenId",
          "type": "uint256"
        }
      ],
      "name": "completeRefund",
      "outputs": [],
      "stateMutability": "nonpayable",
      "type": "function"
    },
    {
      "inputs": [
        {
          "internalType": "uint256",
          "name": "_tokenId",
          "type": "uint256"
        },
        {
          "internalType": "address",
          "name": "_user",
          "type": "address"
        }
      ],
      "name": "computeRefundPeriodsOf",
      "outputs": [
        {
          "internalType": "uint256",
          "name": "",
          "type": "uint256"
        }
      ],
      "stateMutability": "view",
      "type": "function"
    },
    {
      "inputs": [
        {
          "internalType": "address",
          "name": "_wallet",
          "type": "address"
        }
      ],
      "name": "customerExists",
      "outputs": [
        {
          "internalType": "bool",
          "name": "",
          "type": "bool"
        }
      ],
      "stateMutability": "view",
      "type": "function"
    },
    {
      "inputs": [
        {
          "internalType": "address",
          "name": "",
          "type": "address"
        }
      ],
      "name": "customers",
      "outputs": [
        {
          "internalType": "bool",
          "name": "registered",
          "type": "bool"
        },
        {
          "internalType": "uint16",
          "name": "countryOfResidence",
          "type": "uint16"
        },
        {
          "internalType": "uint16",
          "name": "acceptedGtcVersion",
          "type": "uint16"
        }
      ],
      "stateMutability": "view",
      "type": "function"
    },
    {
      "inputs": [],
      "name": "destinationWallet",
      "outputs": [
        {
          "internalType": "address",
          "name": "",
          "type": "address"
        }
      ],
      "stateMutability": "view",
      "type": "function"
    },
    {
      "inputs": [],
      "name": "gtcVersion",
      "outputs": [
        {
          "internalType": "uint16",
          "name": "",
          "type": "uint16"
        }
      ],
      "stateMutability": "view",
      "type": "function"
    },
    {
      "inputs": [
        {
          "internalType": "address",
          "name": "_wallet",
          "type": "address"
        },
        {
          "internalType": "uint256",
          "name": "_tokenId",
          "type": "uint256"
        }
      ],
      "name": "hasActiveSubscription",
      "outputs": [
        {
          "internalType": "bool",
          "name": "",
          "type": "bool"
        }
      ],
      "stateMutability": "view",
      "type": "function"
    },
    {
      "inputs": [
        {
          "internalType": "uint256",
          "name": "_tokenId",
          "type": "uint256"
        }
      ],
      "name": "hasNodeIdCurrentSubscription",
      "outputs": [
        {
          "internalType": "bool",
          "name": "",
          "type": "bool"
        }
      ],
      "stateMutability": "view",
      "type": "function"
    },
    {
      "inputs": [
        {
          "internalType": "address",
          "name": "_wallet",
          "type": "address"
        },
        {
          "internalType": "uint256",
          "name": "_tokenId",
          "type": "uint256"
        }
      ],
      "name": "hasPendingRefund",
      "outputs": [
        {
          "internalType": "bool",
          "name": "",
          "type": "bool"
        }
      ],
      "stateMutability": "view",
      "type": "function"
    },
    {
      "inputs": [
        {
          "internalType": "address",
          "name": "_accessControl",
          "type": "address"
        },
        {
          "internalType": "address",
          "name": "_billing",
          "type": "address"
        },
        {
          "internalType": "address",
          "name": "_nodeIdToken",
          "type": "address"
        },
        {
          "internalType": "address",
          "name": "_destinationWallet",
          "type": "address"
        }
      ],
      "name": "initialize",
      "outputs": [],
      "stateMutability": "nonpayable",
      "type": "function"
    },
    {
      "inputs": [
        {
          "internalType": "enum Billing.SubscriptionPeriod",
          "name": "_period",
          "type": "uint8"
        },
        {
          "internalType": "uint256",
          "name": "_tokenId",
          "type": "uint256"
        },
        {
          "internalType": "string",
          "name": "_currencySymbol",
          "type": "string"
        },
        {
          "internalType": "uint8",
          "name": "_prepaidPeriods",
          "type": "uint8"
        },
        {
          "internalType": "bool",
          "name": "_withdrawalRightWaiver",
          "type": "bool"
        }
      ],
      "name": "newSubscription",
      "outputs": [],
      "stateMutability": "nonpayable",
      "type": "function"
    },
    {
      "inputs": [
        {
          "internalType": "address",
          "name": "",
          "type": "address"
        },
        {
          "internalType": "uint256",
          "name": "",
          "type": "uint256"
        }
      ],
      "name": "refunds",
      "outputs": [
        {
          "internalType": "bool",
          "name": "pending",
          "type": "bool"
        },
        {
          "internalType": "string",
          "name": "currencySymbol",
          "type": "string"
        },
        {
          "internalType": "uint256",
          "name": "amount",
          "type": "uint256"
        }
      ],
      "stateMutability": "view",
      "type": "function"
    },
    {
      "inputs": [
        {
          "internalType": "uint16",
          "name": "_countryOfResidence",
          "type": "uint16"
        }
      ],
      "name": "register",
      "outputs": [],
      "stateMutability": "nonpayable",
      "type": "function"
    },
    {
      "inputs": [
        {
          "internalType": "uint256",
          "name": "_tokenId",
          "type": "uint256"
        },
        {
          "internalType": "uint8",
          "name": "_addedPeriods",
          "type": "uint8"
        }
      ],
      "name": "reloadSubscription",
      "outputs": [],
      "stateMutability": "nonpayable",
      "type": "function"
    },
    {
      "inputs": [
        {
          "internalType": "uint256",
          "name": "_slots",
          "type": "uint256"
        }
      ],
      "name": "removeValidationSlots",
      "outputs": [],
      "stateMutability": "nonpayable",
      "type": "function"
    },
    {
      "inputs": [
        {
          "internalType": "uint16",
          "name": "_version",
          "type": "uint16"
        }
      ],
      "name": "setGtcVersion",
      "outputs": [],
      "stateMutability": "nonpayable",
      "type": "function"
    },
    {
      "inputs": [
        {
          "internalType": "uint256",
          "name": "_tokenId",
          "type": "uint256"
        }
      ],
      "name": "stopSubscription",
      "outputs": [],
      "stateMutability": "nonpayable",
      "type": "function"
    },
    {
      "inputs": [
        {
          "internalType": "address",
          "name": "",
          "type": "address"
        },
        {
          "internalType": "uint256",
          "name": "",
          "type": "uint256"
        }
      ],
      "name": "subscriptions",
      "outputs": [
        {
          "internalType": "uint256",
          "name": "startTs",
          "type": "uint256"
        },
        {
          "internalType": "uint256",
          "name": "endTs",
          "type": "uint256"
        },
        {
          "internalType": "enum Billing.SubscriptionPeriod",
          "name": "period",
          "type": "uint8"
        },
        {
          "internalType": "string",
          "name": "currencySymbol",
          "type": "string"
        },
        {
          "internalType": "uint256",
          "name": "priceRate",
          "type": "uint256"
        },
        {
          "internalType": "uint256",
          "name": "vatRate",
          "type": "uint256"
        }
      ],
      "stateMutability": "view",
      "type": "function"
    },
    {
      "inputs": [],
      "name": "validationSlots",
      "outputs": [
        {
          "internalType": "uint256",
          "name": "",
          "type": "uint256"
        }
      ],
      "stateMutability": "view",
      "type": "function"
    }
  ],
  "bytecode": "0x608060405234801561001057600080fd5b50614042806100206000396000f3fe608060405234801561001057600080fd5b50600436106101375760003560e01c8063623da3d1116100b8578063bb80edb91161007c578063bb80edb914610334578063c8931c5e14610347578063ca06464214610350578063df3225f414610363578063f8c8765e14610376578063fca16f441461038957600080fd5b8063623da3d11461028d578063689b0098146102b2578063b1606188146102de578063b87c7231146102f1578063b9bf374c1461031357600080fd5b80633436247b116100ff5780633436247b146101e95780633febcb0b1461020b57806345ac81a01461022e5780634b98b4921461024f57806353b7a59b1461026257600080fd5b806306b7f8a71461013c578063171165d314610151578063176851f314610164578063252e1c9314610177578063336989ae1461018a575b600080fd5b61014f61014a366004613764565b61039c565b005b61014f61015f36600461381f565b61056e565b61014f6101723660046138e1565b6113d6565b61014f610185366004613905565b611581565b6101c2610198366004613764565b606a6020526000908152604090205460ff81169061ffff6101008204811691630100000090041683565b60408051931515845261ffff92831660208501529116908201526060015b60405180910390f35b6101fc6101f736600461391e565b6118fe565b6040516101e09392919061399a565b61021e61021936600461391e565b6119b8565b60405190151581526020016101e0565b61024161023c3660046139c5565b611a09565b6040519081526020016101e0565b61014f61025d366004613905565b611bc6565b606754610275906001600160a01b031681565b6040516001600160a01b0390911681526020016101e0565b6102a061029b36600461391e565b611d00565b6040516101e096959493929190613a2d565b61021e6102c0366004613764565b6001600160a01b03166000908152606a602052604090205460ff1690565b61021e6102ec36600461391e565b611dce565b61021e6102ff366004613905565b6000908152606d6020526040902054421090565b6069546103219061ffff1681565b60405161ffff90911681526020016101e0565b61014f6103423660046138e1565b611e8b565b61024160685481565b61014f61035e366004613905565b6120e6565b61014f610371366004613a6e565b612218565b61014f610384366004613a9a565b613074565b61014f61039736600461391e565b6131c8565b60335460408051631d6c8e3f60e21b815290516001600160a01b03909216916391d148549183916375b238fc916004808201926020929091908290030181865afa1580156103ee573d6000803e3d6000fd5b505050506040513d601f19601f820116820180604052508101906104129190613af6565b336040516001600160e01b031960e085901b16815260048101929092526001600160a01b03166024820152604401602060405180830381865afa15801561045d573d6000803e3d6000fd5b505050506040513d601f19601f820116820180604052508101906104819190613b0f565b6104c15760405162461bcd60e51b815260206004820152600c60248201526b3737ba1030b71030b236b4b760a11b60448201526064015b60405180910390fd5b6067546001600160a01b039081169082160361050d5760405162461bcd60e51b815260206004820152600b60248201526a1cd85b59481dd85b1b195d60aa1b60448201526064016104b8565b606780546001600160a01b038381166001600160a01b031983168117909355604080519190921680825260208201939093527f056bd69ece4c8e69a1eefb31fbfe7fc5462e0820af938d297216260687623b1f910160405180910390a15050565b6001811515146105d55760405162461bcd60e51b815260206004820152602c60248201527f596f75206d75737420776169766520796f75722031342064617973207769746860448201526b191c985dd85b081c9a59da1d60a21b60648201526084016104b8565b6105de336102c0565b6106215760405162461bcd60e51b81526020600482015260146024820152733737ba10309035b737bbb71031bab9ba37b6b2b960611b60448201526064016104b8565b606954336000908152606a60205260409020546301000000900461ffff9081169116146106905760405162461bcd60e51b815260206004820152601b60248201527f596f75206d75737420616363657074206f7572206e657720475443000000000060448201526064016104b8565b6065546001600160a01b03166355f14d25606a6000336001600160a01b031681526020810191909152604090810160002054905160e083901b6001600160e01b031916815261010090910461ffff166004820152602401602060405180830381865afa158015610704573d6000803e3d6000fd5b505050506040513d601f19601f820116820180604052508101906107289190613b0f565b156107455760405162461bcd60e51b81526004016104b890613b2c565b60008260ff16116107685760405162461bcd60e51b81526004016104b890613b7d565b336066546040516331a9108f60e11b8152600481018790526001600160a01b039283169290911690636352211e90602401602060405180830381865afa1580156107b6573d6000803e3d6000fd5b505050506040513d601f19601f820116820180604052508101906107da9190613bc5565b6001600160a01b0316146108265760405162461bcd60e51b81526020600482015260136024820152721b9bdd081bdddb995c881bd9881b9bd9195259606a1b60448201526064016104b8565b6040805160008152602081019182905280518220606654634c2a18b360e11b90935260248201879052916001600160a01b031690639854316690604401600060405180830381865afa158015610880573d6000803e3d6000fd5b505050506040513d6000823e601f3d908101601f191682016040526108a89190810190613be2565b6040516020016108b89190613c50565b604051602081830303815290604052805190602001200361090c5760405162461bcd60e51b815260206004820152600e60248201526d1b9bd9195259081a5cc81d9bda5960921b60448201526064016104b8565b6109163385611dce565b1561097f5760405162461bcd60e51b815260206004820152603360248201527f616c72656164792068617320616e2061637469766520737562736372697074696044820152721bdb88199bdc881d1a1a5cc81b9bd919481a59606a1b60648201526084016104b8565b6000848152606d60205260409020544210156109e75760405162461bcd60e51b815260206004820152602160248201527f6e6f6465696420616c726561647920686173206120737562736372697074696f6044820152603760f91b60648201526084016104b8565b606554604051636b5f3c1b60e11b81526001600160a01b039091169063d6be783690610a17908690600401613c6c565b602060405180830381865afa158015610a34573d6000803e3d6000fd5b505050506040513d601f19601f82011682018060405250810190610a589190613b0f565b610a9f5760405162461bcd60e51b81526020600482015260186024820152776e6f74206120737570706f727465642063757272656e637960401b60448201526064016104b8565b600060685411610b075760405162461bcd60e51b815260206004820152602d60248201527f6e6f2076616c69646174696f6e20736c6f7420617661696c61626c652c20636f60448201526c36b2903130b1b5903630ba32b960991b60648201526084016104b8565b60655460405163280575e160e01b81526000916001600160a01b03169063280575e190610b3a9089908790600401613c7f565b602060405180830381865afa158015610b57573d6000803e3d6000fd5b505050506040513d601f19601f82011682018060405250810190610b7b9190613af6565b6065549091506000906001600160a01b0316631008a51d83606a84336001600160a01b031681526020810191909152604090810160002054905160e084901b6001600160e01b03191681526004810192909252610100900461ffff166024820152604401602060405180830381865afa158015610bfc573d6000803e3d6000fd5b505050506040513d601f19601f82011682018060405250810190610c209190613af6565b6065549091506000906001600160a01b031663a718f11a610c418486613cb3565b886040518363ffffffff1660e01b8152600401610c5f929190613cc6565b602060405180830381865afa158015610c7c573d6000803e3d6000fd5b505050506040513d601f19601f82011682018060405250810190610ca09190613af6565b60655460405163647ade0360e11b81529192506000916001600160a01b039091169063c8f5bc0690610cd6908a90600401613c6c565b602060405180830381865afa158015610cf3573d6000803e3d6000fd5b505050506040513d601f19601f82011682018060405250810190610d179190613bc5565b9050816001600160a01b03821663dd62ed3e336040516001600160e01b031960e084901b1681526001600160a01b039091166004820152306024820152604401602060405180830381865afa158015610d74573d6000803e3d6000fd5b505050506040513d601f19601f82011682018060405250810190610d989190613af6565b1015610db65760405162461bcd60e51b81526004016104b890613ce7565b428060008b6002811115610dcc57610dcc6139f5565b03610df257610de160ff891662093a80613d15565b610deb9083613cb3565b9050610e8d565b60018b6002811115610e0657610e066139f5565b03610e1b57610de160ff891662278d00613d15565b60028b6002811115610e2f57610e2f6139f5565b03610e4557610de160ff89166301e13380613d15565b60405162461bcd60e51b815260206004820152601b60248201527f496e76616c696420737562736372697074696f6e20706572696f64000000000060448201526064016104b8565b6301e28500610e9c8383613d2c565b10610efd5760405162461bcd60e51b815260206004820152602b60248201527f737562736372697074696f6e73206f766572203336352064617973206172652060448201526a1b9bdd08185b1b1bddd95960aa1b60648201526084016104b8565b6001600160a01b0383166323b872dd3360675460405160e084901b6001600160e01b03191681526001600160a01b03928316600482015291166024820152604481018790526064016020604051808303816000875af1158015610f64573d6000803e3d6000fd5b505050506040513d601f19601f82011682018060405250810190610f889190613b0f565b506065546000906001600160a01b03166393477fa88d6002811115610faf57610faf6139f5565b6040516001600160e01b031960e084901b16815260ff9091166004820152602401602060405180830381865afa158015610fed573d6000803e3d6000fd5b505050506040513d601f19601f820116820180604052508101906110119190613af6565b6065549091506000906001600160a01b031663c725a289606a83336001600160a01b031681526020810191909152604090810160002054905160e083901b6001600160e01b031916815261010090910461ffff166004820152602401602060405180830381865afa15801561108a573d6000803e3d6000fd5b505050506040513d601f19601f820116820180604052508101906110ae9190613af6565b905083606b6000336001600160a01b03166001600160a01b0316815260200190815260200160002060008e81526020019081526020016000206000018190555082606b60006110fa3390565b6001600160a01b03166001600160a01b0316815260200190815260200160002060008e8152602001908152602001600020600101819055508c606b600061113e3390565b6001600160a01b03166001600160a01b0316815260200190815260200160002060008e815260200190815260200160002060020160006101000a81548160ff02191690836002811115611193576111936139f5565b0217905550336000908152606b602090815260408083208f845290915290206003016111bf8c82613dc8565b5081606b6000336001600160a01b03166001600160a01b0316815260200190815260200160002060008e81526020019081526020016000206004018190555080606b600061120a3390565b6001600160a01b03166001600160a01b0316815260200190815260200160002060008e81526020019081526020016000206005018190555082606d60008e8152602001908152602001600020819055506000606660009054906101000a90046001600160a01b03166001600160a01b0316639559acc26112873390565b6040516001600160e01b031960e084901b1681526001600160a01b039091166004820152602401602060405180830381865afa1580156112cb573d6000803e3d6000fd5b505050506040513d601f19601f820116820180604052508101906112ef9190613af6565b1115611361576066546001600160a01b031663fa89401a336040516001600160e01b031960e084901b1681526001600160a01b039091166004820152602401600060405180830381600087803b15801561134857600080fd5b505af115801561135c573d6000803e3d6000fd5b505050505b6068805490600061137183613e88565b91905055507f93b5641c9734cf5f18a3ecb5e97f16dc18462b91a631f85ce4fcc10087fe442b61139e3390565b8d8f8d8f89898f8f8b8b6040516113bf9b9a99989796959493929190613e9f565b60405180910390a150505050505050505050505050565b60335460408051631d6c8e3f60e21b815290516001600160a01b03909216916391d148549183916375b238fc916004808201926020929091908290030181865afa158015611428573d6000803e3d6000fd5b505050506040513d601f19601f8201168201806040525081019061144c9190613af6565b336040516001600160e01b031960e085901b16815260048101929092526001600160a01b03166024820152604401602060405180830381865afa158015611497573d6000803e3d6000fd5b505050506040513d601f19601f820116820180604052508101906114bb9190613b0f565b6114f65760405162461bcd60e51b815260206004820152600c60248201526b3737ba1030b71030b236b4b760a11b60448201526064016104b8565b60695461ffff908116908216116115695760405162461bcd60e51b815260206004820152603160248201527f6e65772076657273696f6e206d7573742062652068696768696572207468616e604482015270207468652070726576696f7573206f6e6560781b60648201526084016104b8565b6069805461ffff191661ffff92909216919091179055565b61158b3382611dce565b15156001146115ac5760405162461bcd60e51b81526004016104b890613f18565b6115b633826119b8565b156116385760405162461bcd60e51b815260206004820152604660248201527f612070656e64696e6720726566756e642065786973747320666f72207468697360448201527f206e6f64652069642c2063616e27742073746f7020746869732073756273637260648201526534b83a34b7b760d11b608482015260a4016104b8565b336000908152606b602090815260408083208484528252808320815160c08101835281548152600182015493810193909352600280820154919284019160ff1690811115611688576116886139f5565b6002811115611699576116996139f5565b81526020016003820180546116ad90613d3f565b80601f01602080910402602001604051908101604052809291908181526020018280546116d990613d3f565b80156117265780601f106116fb57610100808354040283529160200191611726565b820191906000526020600020905b81548152906001019060200180831161170957829003601f168201915b5050505050815260200160048201548152602001600582015481525050905060006117528361023c3390565b9050801561183c57600081836080015161176c9190613d15565b9050600060648460a00151836117829190613d15565b61178c9190613f5f565b336000908152606c602090815260408083208984529091529020805460ff191660019081178255606087015192935001906117c79082613dc8565b506117d28183613cb3565b336000818152606c602090815260408083208a8452909152908190206002018390558651606088015191517fa6fad3eb7bf25bae84e847917e9a7e43320072eba3bf40f827ebf5e02cf6a6689461183194938b93929091908a90613f81565b60405180910390a150505b6000838152606d60205260408120429055606880549161185b83613fae565b91905055507f6e45505b78e59fdf96f83ea337bfc163bb612d80e066bfde1724bb3b2ddf7ce86118883390565b336000908152606b60209081526040808320888452825291829020805460019091015483516001600160a01b03959095168552918401889052838301526060830152426080830152519081900360a00190a15050336000908152606b602090815260408083209383529290522042600190910155565b606c6020908152600092835260408084209091529082529020805460018201805460ff909216929161192f90613d3f565b80601f016020809104026020016040519081016040528092919081815260200182805461195b90613d3f565b80156119a85780601f1061197d576101008083540402835291602001916119a8565b820191906000526020600020905b81548152906001019060200180831161198b57829003601f168201915b5050505050908060020154905083565b60006119c48383611dce565b15156001036119d557506000611a03565b506001600160a01b0382166000908152606c6020908152604080832084845290915290205460ff1615156001145b92915050565b6001600160a01b0381166000908152606b602090815260408083208584528252808320815160c0810183528154815260018201549381019390935260028082015485949384019160ff90911690811115611a6557611a656139f5565b6002811115611a7657611a766139f5565b8152602001600382018054611a8a90613d3f565b80601f0160208091040260200160405190810160405280929190818152602001828054611ab690613d3f565b8015611b035780601f10611ad857610100808354040283529160200191611b03565b820191906000526020600020905b815481529060010190602001808311611ae657829003601f168201915b505050505081526020016004820154815260200160058201548152505090506000428260200151611b349190613d2c565b905060008083604001516002811115611b4f57611b4f6139f5565b03611b6857611b6162093a8083613f5f565b9050611bbd565b600183604001516002811115611b8057611b806139f5565b03611b9257611b6162278d0083613f5f565b600283604001516002811115611baa57611baa6139f5565b03610e4557611b616301e1338083613f5f565b95945050505050565b6033546040805163d539139360e01b815290516001600160a01b03909216916391d1485491839163d5391393916004808201926020929091908290030181865afa158015611c18573d6000803e3d6000fd5b505050506040513d601f19601f82011682018060405250810190611c3c9190613af6565b336040516001600160e01b031960e085901b16815260048101929092526001600160a01b03166024820152604401602060405180830381865afa158015611c87573d6000803e3d6000fd5b505050506040513d601f19601f82011682018060405250810190611cab9190613b0f565b611ce65760405162461bcd60e51b815260206004820152600c60248201526b3737ba10309036b4b73a32b960a11b60448201526064016104b8565b8060686000828254611cf89190613d2c565b909155505050565b606b60209081526000928352604080842090915290825290208054600182015460028301546003840180549394929360ff9092169291611d3f90613d3f565b80601f0160208091040260200160405190810160405280929190818152602001828054611d6b90613d3f565b8015611db85780601f10611d8d57610100808354040283529160200191611db8565b820191906000526020600020905b815481529060010190602001808311611d9b57829003601f168201915b5050505050908060040154908060050154905086565b6001600160a01b0382166000908152606a602052604081205460ff16611e2d5760405162461bcd60e51b81526020600482015260146024820152732737ba10309035b737bbb71031bab9ba37b6b2b960611b60448201526064016104b8565b6001600160a01b0383166000908152606b6020908152604080832085845290915290205415801590611e8457506001600160a01b0383166000908152606b6020908152604080832085845290915290206001015442105b9392505050565b611e94336102c0565b15611ee15760405162461bcd60e51b815260206004820152601760248201527f437573746f6d657220616c72656164792065786973747300000000000000000060448201526064016104b8565b60655460405163770527dd60e01b815261ffff831660048201526001600160a01b039091169063770527dd90602401602060405180830381865afa158015611f2d573d6000803e3d6000fd5b505050506040513d601f19601f82011682018060405250810190611f519190613b0f565b611f9d5760405162461bcd60e51b815260206004820152601860248201527f556e737570706f7274656420636f756e74727920636f6465000000000000000060448201526064016104b8565b6065546040516355f14d2560e01b815261ffff831660048201526001600160a01b03909116906355f14d2590602401602060405180830381865afa158015611fe9573d6000803e3d6000fd5b505050506040513d601f19601f8201168201806040525081019061200d9190613b0f565b1561205a5760405162461bcd60e51b815260206004820152601f60248201527f436f756e7472792069732064656e696564206279206f757220706f6c6963790060448201526064016104b8565b336000818152606a60209081526040918290208054600162ffffff1990911661010061ffff88811691820260ff1916929092179290921780845560695490911663010000000264ffff000000199091161790915582519384529083015280517f70e483b30fb6cc3eab968cf3fccdc678c2723b2fefa84285a99e436c8ff72bf69281900390910190a150565b6033546040805163d539139360e01b815290516001600160a01b03909216916391d1485491839163d5391393916004808201926020929091908290030181865afa158015612138573d6000803e3d6000fd5b505050506040513d601f19601f8201168201806040525081019061215c9190613af6565b336040516001600160e01b031960e085901b16815260048101929092526001600160a01b03166024820152604401602060405180830381865afa1580156121a7573d6000803e3d6000fd5b505050506040513d601f19601f820116820180604052508101906121cb9190613b0f565b6122065760405162461bcd60e51b815260206004820152600c60248201526b3737ba10309036b4b73a32b960a11b60448201526064016104b8565b8060686000828254611cf89190613cb3565b612221336102c0565b6122645760405162461bcd60e51b81526020600482015260146024820152733737ba10309035b737bbb71031bab9ba37b6b2b960611b60448201526064016104b8565b606954336000908152606a60205260409020546301000000900461ffff9081169116146122d35760405162461bcd60e51b815260206004820152601b60248201527f596f75206d75737420616363657074206f7572206e657720475443000000000060448201526064016104b8565b6065546001600160a01b03166355f14d25606a6000336001600160a01b031681526020810191909152604090810160002054905160e083901b6001600160e01b031916815261010090910461ffff166004820152602401602060405180830381865afa158015612347573d6000803e3d6000fd5b505050506040513d601f19601f8201168201806040525081019061236b9190613b0f565b156123885760405162461bcd60e51b81526004016104b890613b2c565b60008160ff16116123ab5760405162461bcd60e51b81526004016104b890613b7d565b336066546040516331a9108f60e11b8152600481018590526001600160a01b039283169290911690636352211e90602401602060405180830381865afa1580156123f9573d6000803e3d6000fd5b505050506040513d601f19601f8201168201806040525081019061241d9190613bc5565b6001600160a01b0316146124695760405162461bcd60e51b81526020600482015260136024820152721b9bdd081bdddb995c881bd9881b9bd9195259606a1b60448201526064016104b8565b6040805160008152602081019182905280518220606654634c2a18b360e11b90935260248201859052916001600160a01b031690639854316690604401600060405180830381865afa1580156124c3573d6000803e3d6000fd5b505050506040513d6000823e601f3d908101601f191682016040526124eb9190810190613be2565b6040516020016124fb9190613c50565b604051602081830303815290604052805190602001200361254f5760405162461bcd60e51b815260206004820152600e60248201526d1b9bd9195259081a5cc81d9bda5960921b60448201526064016104b8565b6125593383611dce565b6125755760405162461bcd60e51b81526004016104b890613f18565b6000828152606d602052604090205442106125d25760405162461bcd60e51b815260206004820152601a60248201527f6e6f6465696420686173206e6f20737562736372697074696f6e00000000000060448201526064016104b8565b336000908152606b602090815260408083208584528252808320815160c08101835281548152600182015493810193909352600280820154919284019160ff1690811115612622576126226139f5565b6002811115612633576126336139f5565b815260200160038201805461264790613d3f565b80601f016020809104026020016040519081016040528092919081815260200182805461267390613d3f565b80156126c05780601f10612695576101008083540402835291602001916126c0565b820191906000526020600020905b8154815290600101906020018083116126a357829003601f168201915b5050509183525050600482810154602083015260059092015460409182015260655460608401519151636b5f3c1b60e11b81529394506001600160a01b03169263d6be783692612711929101613c6c565b602060405180830381865afa15801561272e573d6000803e3d6000fd5b505050506040513d601f19601f820116820180604052508101906127529190613b0f565b6127995760405162461bcd60e51b81526020600482015260186024820152776e6f74206120737570706f727465642063757272656e637960401b60448201526064016104b8565b606554604080830151905163280575e160e01b81526000926001600160a01b03169163280575e1916127d091908790600401613c7f565b602060405180830381865afa1580156127ed573d6000803e3d6000fd5b505050506040513d601f19601f820116820180604052508101906128119190613af6565b6065549091506000906001600160a01b0316631008a51d83606a84336001600160a01b031681526020810191909152604090810160002054905160e084901b6001600160e01b03191681526004810192909252610100900461ffff166024820152604401602060405180830381865afa158015612892573d6000803e3d6000fd5b505050506040513d601f19601f820116820180604052508101906128b69190613af6565b6065549091506000906001600160a01b031663a718f11a6128d78486613cb3565b86606001516040518363ffffffff1660e01b81526004016128f9929190613cc6565b602060405180830381865afa158015612916573d6000803e3d6000fd5b505050506040513d601f19601f8201168201806040525081019061293a9190613af6565b606554606086015160405163647ade0360e11b81529293506000926001600160a01b039092169163c8f5bc069161297391600401613c6c565b602060405180830381865afa158015612990573d6000803e3d6000fd5b505050506040513d601f19601f820116820180604052508101906129b49190613bc5565b9050816001600160a01b03821663dd62ed3e336040516001600160e01b031960e084901b1681526001600160a01b039091166004820152306024820152604401602060405180830381865afa158015612a11573d6000803e3d6000fd5b505050506040513d601f19601f82011682018060405250810190612a359190613af6565b1015612a535760405162461bcd60e51b81526004016104b890613ce7565b602085015180600087604001516002811115612a7157612a716139f5565b03612b8b57612a808933611a09565b15612af35760405162461bcd60e51b815260206004820152603b60248201527f61207765656b6c7920737562736372697074696f6e2063616e206f6e6c79206260448201527f652072656c6f6164656420696e20746865206c617374207765656b000000000060648201526084016104b8565b612b0360ff891662093a80613d15565b612b0d9083613cb3565b90506301e28500612b1e8383613d2c565b10612b865760405162461bcd60e51b815260206004820152603260248201527f61207765656b6c7920737562736372697074696f6e2072656c6f61642063616e60448201527113ba1032bc31b2b2b21037b732903cb2b0b960711b60648201526084016104b8565b612d92565b600187604001516002811115612ba357612ba36139f5565b03612cb957612bb28933611a09565b15612c255760405162461bcd60e51b815260206004820152603d60248201527f61206d6f6e74686c7920737562736372697074696f6e2063616e206f6e6c792060448201527f62652072656c6f6164656420696e20746865206c617374206d6f6e746800000060648201526084016104b8565b612c3560ff891662278d00613d15565b612c3f9083613cb3565b90506301e28500612c508383613d2c565b10612b865760405162461bcd60e51b815260206004820152603360248201527f61206d6f6e74686c7920737562736372697074696f6e2072656c6f61642063616044820152723713ba1032bc31b2b2b21037b732903cb2b0b960691b60648201526084016104b8565b600287604001516002811115612cd157612cd16139f5565b03610e4557612ce760ff89166301e13380613d15565b612cf19083613cb3565b905063020a1200612d028383613d2c565b10612b865760405162461bcd60e51b815260206004820152605460248201527f6120796561726c7920737562736372697074696f6e2063616e206f6e6c79206260448201527f652072656c6f6164656420746865206c617374206d6f6e746820616e64206f6e606482015273363c903337b91037b7329036b7b932903cb2b0b960611b608482015260a4016104b8565b6001600160a01b0383166323b872dd3360675460405160e084901b6001600160e01b03191681526001600160a01b03928316600482015291166024820152604481018790526064016020604051808303816000875af1158015612df9573d6000803e3d6000fd5b505050506040513d601f19601f82011682018060405250810190612e1d9190613b0f565b5060655460408801516000916001600160a01b0316906393477fa8906002811115612e4a57612e4a6139f5565b6040516001600160e01b031960e084901b16815260ff9091166004820152602401602060405180830381865afa158015612e88573d6000803e3d6000fd5b505050506040513d601f19601f82011682018060405250810190612eac9190613af6565b6065549091506000906001600160a01b031663c725a289606a83336001600160a01b031681526020810191909152604090810160002054905160e083901b6001600160e01b031916815261010090910461ffff166004820152602401602060405180830381865afa158015612f25573d6000803e3d6000fd5b505050506040513d601f19601f82011682018060405250810190612f499190613af6565b905082606b6000336001600160a01b03166001600160a01b0316815260200190815260200160002060008d81526020019081526020016000206001018190555081606b6000612f953390565b6001600160a01b03166001600160a01b0316815260200190815260200160002060008d81526020019081526020016000206004018190555080606b6000612fd93390565b6001600160a01b03168152602080820192909252604090810160009081208f8252835281812060050193909355606d90915290208390557ff5fceef4d1e09683b39c98b8af934e3b68bcb8f4ace2df85fc6c88547c358414338c8b604001518d8d606001518e60000151898f8f8b8b60405161305f9b9a99989796959493929190613e9f565b60405180910390a15050505050505050505050565b600054610100900460ff16158080156130945750600054600160ff909116105b806130ae5750303b1580156130ae575060005460ff166001145b6131115760405162461bcd60e51b815260206004820152602e60248201527f496e697469616c697a61626c653a20636f6e747261637420697320616c72656160448201526d191e481a5b9a5d1a585b1a5e995960921b60648201526084016104b8565b6000805460ff191660011790558015613134576000805461ff0019166101001790555b61313d856136bf565b606580546001600160a01b038087166001600160a01b03199283161790925560668054868416908316179055606780549285169290911691909117905580156131c1576000805461ff0019169055604051600181527f7f26b83ff96e1f2b6a682f133852f6798a09c465da95921460cefb3847402498906020015b60405180910390a15b5050505050565b60335460408051632cb0667960e11b815290516001600160a01b03909216916391d14854918391635960ccf2916004808201926020929091908290030181865afa15801561321a573d6000803e3d6000fd5b505050506040513d601f19601f8201168201806040525081019061323e9190613af6565b336040516001600160e01b031960e085901b16815260048101929092526001600160a01b03166024820152604401602060405180830381865afa158015613289573d6000803e3d6000fd5b505050506040513d601f19601f820116820180604052508101906132ad9190613b0f565b6132ea5760405162461bcd60e51b815260206004820152600e60248201526d3737ba1030903932b33ab73232b960911b60448201526064016104b8565b6132f482826119b8565b15156001146133595760405162461bcd60e51b815260206004820152602b60248201527f6e6f2070656e64696e6720726566756e6420666f7220746869732077616c6c6560448201526a1d0809881b9bd919481a5960aa1b60648201526084016104b8565b6001600160a01b0382166000908152606c602090815260408083208484528252808320815160608101909252805460ff161515825260018101805492939192918401916133a590613d3f565b80601f01602080910402602001604051908101604052809291908181526020018280546133d190613d3f565b801561341e5780601f106133f35761010080835404028352916020019161341e565b820191906000526020600020905b81548152906001019060200180831161340157829003601f168201915b50505091835250506002919091015460209182015260655460408084015192840151905163538c788d60e11b81529394506000936001600160a01b039092169263a718f11a926134719290600401613cc6565b602060405180830381865afa15801561348e573d6000803e3d6000fd5b505050506040513d601f19601f820116820180604052508101906134b29190613af6565b606554602084015160405163647ade0360e11b81529293506000926001600160a01b039092169163c8f5bc06916134eb91600401613c6c565b602060405180830381865afa158015613508573d6000803e3d6000fd5b505050506040513d601f19601f8201168201806040525081019061352c9190613bc5565b9050816001600160a01b03821663dd62ed3e336040516001600160e01b031960e084901b1681526001600160a01b039091166004820152306024820152604401602060405180830381865afa158015613589573d6000803e3d6000fd5b505050506040513d601f19601f820116820180604052508101906135ad9190613af6565b10156135cb5760405162461bcd60e51b81526004016104b890613ce7565b6001600160a01b0381166323b872dd336040516001600160e01b031960e084901b1681526001600160a01b0391821660048201529088166024820152604481018590526064016020604051808303816000875af1158015613630573d6000803e3d6000fd5b505050506040513d601f19601f820116820180604052508101906136549190613b0f565b506001600160a01b0385166000908152606c602090815260408083208784529091529020805460ff191690557f4bfc87c89000f0daa20515e00f5f009a2605a3ebbfbf6b3ed3ee23e28fab8510853386866020015187604001516040516131b8959493929190613fc7565b600054610100900460ff1661372a5760405162461bcd60e51b815260206004820152602b60248201527f496e697469616c697a61626c653a20636f6e7472616374206973206e6f74206960448201526a6e697469616c697a696e6760a81b60648201526084016104b8565b603380546001600160a01b0319166001600160a01b0392909216919091179055565b6001600160a01b038116811461376157600080fd5b50565b60006020828403121561377657600080fd5b8135611e848161374c565b634e487b7160e01b600052604160045260246000fd5b604051601f8201601f1916810167ffffffffffffffff811182821017156137c0576137c0613781565b604052919050565b600067ffffffffffffffff8211156137e2576137e2613781565b50601f01601f191660200190565b803560ff8116811461380157600080fd5b919050565b801515811461376157600080fd5b803561380181613806565b600080600080600060a0868803121561383757600080fd5b85356003811061384657600080fd5b945060208601359350604086013567ffffffffffffffff81111561386957600080fd5b8601601f8101881361387a57600080fd5b803561388d613888826137c8565b613797565b8181528960208385010111156138a257600080fd5b816020840160208301376000602083830101528095505050506138c7606087016137f0565b91506138d560808701613814565b90509295509295909350565b6000602082840312156138f357600080fd5b813561ffff81168114611e8457600080fd5b60006020828403121561391757600080fd5b5035919050565b6000806040838503121561393157600080fd5b823561393c8161374c565b946020939093013593505050565b60005b8381101561396557818101518382015260200161394d565b50506000910152565b6000815180845261398681602086016020860161394a565b601f01601f19169290920160200192915050565b83151581526060602082015260006139b5606083018561396e565b9050826040830152949350505050565b600080604083850312156139d857600080fd5b8235915060208301356139ea8161374c565b809150509250929050565b634e487b7160e01b600052602160045260246000fd5b60038110613a2957634e487b7160e01b600052602160045260246000fd5b9052565b868152856020820152613a436040820186613a0b565b60c060608201526000613a5960c083018661396e565b60808301949094525060a00152949350505050565b60008060408385031215613a8157600080fd5b82359150613a91602084016137f0565b90509250929050565b60008060008060808587031215613ab057600080fd5b8435613abb8161374c565b93506020850135613acb8161374c565b92506040850135613adb8161374c565b91506060850135613aeb8161374c565b939692955090935050565b600060208284031215613b0857600080fd5b5051919050565b600060208284031215613b2157600080fd5b8151611e8481613806565b60208082526031908201527f596f757220636f756e747279206f66207265736964656e63652069732064656e604082015270696564206279206f757220706f6c69637960781b606082015260800190565b60208082526028908201527f6e62206f66207072657061696420706572696f6473206d757374206265206174604082015267206c65617374203160c01b606082015260800190565b600060208284031215613bd757600080fd5b8151611e848161374c565b600060208284031215613bf457600080fd5b815167ffffffffffffffff811115613c0b57600080fd5b8201601f81018413613c1c57600080fd5b8051613c2a613888826137c8565b818152856020838501011115613c3f57600080fd5b611bbd82602083016020860161394a565b60008251613c6281846020870161394a565b9190910192915050565b602081526000611e84602083018461396e565b60408101613c8d8285613a0b565b60ff831660208301529392505050565b634e487b7160e01b600052601160045260246000fd5b80820180821115611a0357611a03613c9d565b828152604060208201526000613cdf604083018461396e565b949350505050565b6020808252601490820152736e6f7420656e6f75676820616c6c6f77616e636560601b604082015260600190565b8082028115828204841417611a0357611a03613c9d565b81810381811115611a0357611a03613c9d565b600181811c90821680613d5357607f821691505b602082108103613d7357634e487b7160e01b600052602260045260246000fd5b50919050565b601f821115613dc357600081815260208120601f850160051c81016020861015613da05750805b601f850160051c820191505b81811015613dbf57828155600101613dac565b5050505b505050565b815167ffffffffffffffff811115613de257613de2613781565b613df681613df08454613d3f565b84613d79565b602080601f831160018114613e2b5760008415613e135750858301515b600019600386901b1c1916600185901b178555613dbf565b600085815260208120601f198616915b82811015613e5a57888601518255948401946001909101908401613e3b565b5085821015613e785787850151600019600388901b60f8161c191681555b5050505050600190811b01905550565b600081613e9757613e97613c9d565b506000190190565b6001600160a01b038c168152602081018b90526000610160613ec4604084018d613a0b565b60ff8b166060840152806080840152613edf8184018b61396e565b60a0840199909952505060c081019590955260e08501939093526101008401919091526101208301526101409091015295945050505050565b60208082526027908201527f6e6f2061637469766520737562736372697074696f6e20666f722074686973206040820152661b9bd919481a5960ca1b606082015260800190565b600082613f7c57634e487b7160e01b600052601260045260246000fd5b500490565b60018060a01b038716815285602082015284604082015260c060608201526000613a5960c083018661396e565b600060018201613fc057613fc0613c9d565b5060010190565b6001600160a01b038681168252851660208201526040810184905260a060608201819052600090613ffa9083018561396e565b9050826080830152969550505050505056fea26469706673582212204284b4591519f64a6afcaeff5c1bbff21584fd10fb0fe6b7b136f90cb4c732b264736f6c63430008110033",
  "linkReferences": {},
  "deployedLinkReferences": {}
}